:100000000C945E020C9496020C9496020C94960248
:100010000C9496020C9496020C9496020C94960200
:100020000C9496020C9496020C94D72C0C94AB2D45
:100030000C94DD270C9496020C9496020C94960274
:100040000C9496020C9496020C9496020C949602D0
:100050000C9496020C9480280C9496020C949602B0
:100060000C9496020C9496020C9496020C949602B0
:100070000C9496020C9496020C9496020C949602A0
:100080000C9496020C9496020C9496020C94960290
:100090000C9496020C9496020C9496020C94960280
:1000A0000C9496020C9496020C949602290014006B
:1000B0001A000900130005000D000F0018001C00B5
:1000C000330028002A3404001500160017000A0027
:1000D0001000110008000C0012002A341A7C1D00C8
:1000E0001B000600070019000E000B003600370049
:1000F00038001B7C5043E200E000E30052412C003A
:1001000000005142E300E400E2004F4435003A00B1
:100110003B003C003D003E0023002400250026005B
:10012000270045002B0001000100010052000100E2
:1001300001002F0030002E022D02310201000100CB
:1001400001000100010001002D0036023702CF003E
:10015000D000CD00010001000100010001002B00D2
:10016000000023520100D100D200CE0044001E0046
:100170001F002000210022003F00400041004200FB
:10018000430035024C002D002E002F0230020100EA
:1001900001005100010001000100010001003400D4
:1001A0003100260227025700010001000100DB0098
:1001B000DC00D900010001000100010023522B00E6
:1001C000000001000100D100D200DA00007C237899
:1001D000247800000000017803780278057806781A
:1001E00004780078000025782678000000000000E0
:1001F00022782B782C782D782178207800002778A9
:1002000028780000000000002E78307831783278AD
:1002100033782F78000029782A7800000100000048
:100220000000010000000000000000000000E300EA
:10023000E5002600000000000000000000000000B3
:10024000000000000000E300E500210000000000C5
:10025000000000000000000000000000000000009E
:10026000000000000000000000000000000000008E
:10027000000000000000E300E000140000000000A7
:10028000000000000000000000000000000101016B
:100290000101010101010202020202020202020343
:1002A0000303030303030304040404040404050513
:1002B00005050506060606060707070707080808D6
:1002C00008090909090A0A0A0B0B0B0C0C0C0D0D85
:1002D0000D0E0E0E0F0F0F1010111111121213131D
:1002E0001414151516161717181819191A1A1B1B96
:1002F0001C1D1D1E1E1F20202122222324242526F2
:1003000026272829292A2B2C2D2D2E2F3031323229
:10031000333435363738393A3B3C3D3E3F40414235
:10032000434445464748494A4C4D4E4F505153541B
:10033000555658595A5B5D5E5F61626465666869CF
:100340006B6C6D6F7072737577787A7B7D7E80824F
:10035000838587888A8C8E8F91939596989A9C9E98
:10036000A0A2A3A5A7A9ABADAFB1B3B5B7BABCBEA8
:10037000C0C2C4C6C9CBCDCFD1D4D6D8DBDDDFE275
:10038000E4E7E9EBEEF0F3F5F8FAFDFF16035900A8
:100390004D0044004B002000410069007200340011
:1003A000300000000A0359004D0044004B000000DB
:1003B0000403090409023B00020100A0FA09040039
:1003C0000001030101000921110100012240000781
:1003D0000581030800010904010001030000000970
:1003E0002111010001227B00070582032000011278
:1003F00001000200000008D44511090100010200BB
:100400000105010902A10185020901A100050919DF
:1004100001290815002501950875018102050109CA
:100420003009311581257F95027508810609381537
:1004300081257F950175088106050C0A3802158112
:10044000257F950175088106C0C005010980A101BD
:10045000850319012AB700150126B700950175100B
:100460008100C0050C0901A101850419012AA0021F
:10047000150126A002950175108100C0050109062D
:10048000A101050719E029E7150025019508750167
:1004900081029501750881010507190029FF1500E2
:1004A00026FF0095067508810005081901290595A4
:1004B0000575019102950175039101C011241FBEBC
:1004C000CFEFDAE0DEBFCDBF04B603FE18C08091E7
:1004D000FA049091FB04A091FC04B091FD048730D4
:1004E000904BA740B04B59F41092FA041092FB04C1
:1004F0001092FC041092FD04E0E0F8E3099512E08C
:10050000A0E0B1E0E6EDF2E602C005900D92A6375C
:10051000B107D9F724E0A6E7B2E001C01D92AA3FD7
:10052000B207E1F70E9468110C94EA300C940000C5
:100530008530B8F46430A8F44C3098F450E09CE076
:10054000699F400D511D1124FA0190E3899FE00D30
:10055000F11D1124EE0FFF1FE455FF4F859194917B
:10056000089580E090E008950E949802089581E047
:10057000089581E008950E94B902089508950E94A7
:10058000BE020895A5E0B0E0E8ECF2E00C94DC2FA8
:1005900049835A8330917D0289819A81311119C032
:1005A000662399F0222389F00E946D08182F682F86
:1005B00089819A810E94490869817A81812F0E94EC
:1005C000D90E2596E3E00C94F82F0E945B08182FB3
:1005D000F3CF0E946D0869817A81F1CFFC01262F4B
:1005E000408151816281738184810E94C202089599
:1005F00081E00895CF93DF93EC0160E00E94EE026A
:10060000BE010E94BF02DF91CF9108950E940D109C
:1006100008950E941110089508950E9418070E94DD
:100620000C032FEF84E39CE0215080409040E1F7E1
:1006300000C0000008950E940D030E94A4280895A0
:100640000E940D030E94C82808950F931F93CF9313
:10065000DF938C0161E00E94EE02EC01B8010E9480
:10066000BB02811106C080E0DF91CF911F910F91F5
:100670000895B801CE010E947A268823A1F3B8011B
:10068000CE010E941025882371F3B801CE010E948B
:10069000EC25882341F3B801CE010E9487248823EA
:1006A00011F3F8018281882361F0C330FCE7DF0792
:1006B000E9F058F4C115ECE7DE07A9F0C130DC47DA
:1006C000B9F0C8010E94B702CFCFCB358CE7D8076D
:1006D000A9F0CC35ECE7DE0771F0CA35DC4789F7C5
:1006E0000E946F0CEECF0E941B03BDCF0E94770CBF
:1006F0000E942003B8CF0E94650CE3CF0E94730CC8
:10070000E0CF0E94B9270E943D220E94B30381E0FE
:100710000E945C2308950E94B70380E00E945C233E
:100720000E94BE27089508950E949303089581E0D2
:1007300008950895CF93DF93D82F0E949703C82F71
:10074000882319F08D2F0E9499038C2FDF91CF9170
:1007500008950895CF93C82F0E9494038C2F0E9470
:100760009A03CF91089580E00E94AA0308950E9401
:10077000C8260E94AA030895CF930E94C826C82FB6
:10078000809178028C1779F0C09378020E944928F2
:100790006093790270937A0280937B0290937C023B
:1007A0008C2F0E94AA03CF910895ABE0B0E0EBED4F
:1007B000F3E00C94DD2F4F83588769877A878B8706
:1007C00061110E94B00B1E821D8285E0FE013796EA
:1007D000DE01119601900D928A95E1F78C819D8141
:1007E000892B61F449815A816B817C818D819E8145
:1007F0000E94D90A2B96E2E00C94F92F89819A8104
:1008000089238F3F79F3CE0101960E94F80281116E
:10081000E9CFF0CFFC01808191810E949F0808956B
:10082000662329F00E94EC110E94BF1208950E94D5
:100830004612FACFCF93C82F8823B9F08CEF8C0FD4
:10084000813AA8F46C2F8091CD019091CE010E9445
:100850004A27882329F08C2F0E94700B0E94D10B0D
:100860008C2F0E94680B0E94D10BCF91089580E2DB
:100870008C0F883048F4C77081E001C0880FCA959A
:10088000EAF70E94930BEFCFEBE5EC0FE33040F477
:10089000F0E0E35EFD4F808190E00E94EE26E5CF20
:1008A000E8E5EC0FE93150F4F0E0EE0FFF1FE55101
:1008B000FE4F808191810E941327D7CF83E38C0F55
:1008C000833198F661E08C2F0E941004CECF8823EC
:1008D00081F19CEF980F913A28F40E94700B0E94CE
:1008E000D10B089590E2980F983050F4877091E002
:1008F00001C0990F8A95EAF7892F0E94990BEFCFD3
:100900009BE5980F933028F490E080E00E94EE265B
:10091000089598E5980F993128F490E080E00E94BE
:100920001327089593E3980F933118F460E00E9421
:10093000100408951F93CF93DF93182FEB010E94AB
:100940001A04209739F4812F0E946704DF91CF9118
:100950001F9108958FE99FE00197F1F700C0000013
:100960002197EFCF70E060E0893311F460E570E02B
:100970000E949A040895882321F00E94930B0E94FC
:10098000D10B0895882321F00E94990B0E94D10B6E
:100990000895B0E0A0E0EFECF4E00C94D62F6C01E9
:1009A000D62FC72FFC011281F580F2949FE0F92227
:1009B0000E94890BE82E8823B9F0E12E1123A1F0C3
:1009C0008C2F807F803421F080E28D0F8830D0F032
:1009D00080910C0482FF16C082E00E94340C0E94B9
:1009E000890B91E0E82EE926BC2EB2948FE0B82264
:1009F000FBE0FB1508F468C0EB2DF0E0E451FF4C80
:100A00000C94C72FE12CF0CF0C2F0F70C07F11F08A
:100A10000295007F112399F0002359F080E28D0F99
:100A2000883010F0D11107C0802F0E94930B0E94D4
:100A3000D10B8D2F41C0802F0E94A30BF8CF8D2F9B
:100A40000E946704002309F43FC080E28D0F8830C4
:100A500010F0D11104C0802F0E94990B03C0802F89
:100A60000E94A90B0E94D10B2FC00C2F0F70C07FCA
:100A7000C03211F00295007FDD2381F0D13009F4FE
:100A800068C0112309F472C0FF2009F468C0F601A0
:100A9000858180FFCECF8F70858361C080910C04EB
:100AA00082FD33C0112359F0002329F0802F0E94CA
:100AB000930B0E94D10B80E00E941A0405C080E0D5
:100AC0000E9467040111C7CFEB2DE850FF0B34974C
:100AD00020F40E94C8260E94AA03EE2089F00E94FA
:100AE000850B80FD0DC0F60112820E947F0B0E94D3
:100AF000A707C6010E94D8060E947F0B0E94B70775
:100B0000CDB7DEB7E9E00C94F22F112389F0F11094
:100B100006C00E94B30B802B0E94BB04D5CF21E0FE
:100B2000F212F7CF0E94B30B802B0E94BA0BCCCFEE
:100B3000F11006C00E94C70B802F0E94C204C4CFD0
:100B400031E0F31609F2802F0E94C2040E94C70B05
:100B5000BBCF112331F085E08F1508F4B5CF802F7E
:100B6000DBCF94E09F1508F4AFCFE6CFFF2021F351
:100B7000D93349F4FFEF27EE33E0F1502040304005
:100B8000E1F700C000008D2F0E9467049DCF8C2FDD
:100B900086958695837069F0813009F095CF8D2F09
:100BA0009C2F9370111102C080E090E00E941327E7
:100BB0008BCF8D2F9C2F9370111102C080E090E09D
:100BC0000E94EE2681CF612F8D2F0E9410047CCFD2
:100BD0008C2F8370A1F5111177CF4D2F429546953B
:100BE0004770440F440F2D2F2F7030E0042E02C0A9
:100BF000220F331F0A94E2F790E080E0D4FF09C08F
:100C00008FE090E002C0880F991F4A95E2F7809527
:100C10009095C695C695C370822B932BC23049F030
:100C200058F4C13019F00E9477074ECF0E946E072A
:100C30004BCF0E94800748CF0E946B0745CF869517
:100C4000112311F08C2F8170882309F43DCF4D2F93
:100C5000429546954770440F440F2D2F2F7030E07A
:100C6000042E02C0220F331F0A94E2F790E080E0C6
:100C7000D4FF09C08FE090E002C0880F991F4A9509
:100C8000E2F780959095C695C695C370822B932BFD
:100C9000C23049F058F4C13019F00E94E20714CF75
:100CA0000E94D90711CF0E94EB070ECF0E948F0739
:100CB0000BCFCF70112329F08C2F0E94A7078D2F07
:100CC0002BCF8D2F0E94C2048C2F0E94B707FCCE21
:100CD000D23F51F160F4D03FB9F0D13F81F0112300
:100CE00009F449C0F110A5CE8C2F8F7121C0D33FDC
:100CF00011F1D43FA1F780910C0482FD26C08C2F06
:100D00008F71112311F314C0112349F084E08F1562
:100D100008F4DACE8C2F8F710E94C907D5CE95E0EA
:100D20009F1508F4D1CEF6CF8C2F8F711111CDCF36
:100D30000E94A707C9CE112329F08C2F8F710E9422
:100D40009B07C2CE0E949607BFCE112349F0CF71F8
:100D50008C2F0E94A70763E08C2F0E94160CB4CE44
:100D600081E00E94340CE1E0EF1508F0ADCE82E0A6
:100D70000E94340CA9CEF110FBCE8C2F8F71A5CF21
:100D80000F931F93CF93DF93EC01688179818A8160
:100D90000E94AA088C010E94F4070E946A07B80109
:100DA000CE010E94C904DF91CF911F910F91089548
:100DB000CF93DF93EC018B819C81892B29F0888173
:100DC000998189238F3F51F4DF91CF910895CE010E
:100DD0000E94C006CE010E94FA02F6CFCE010E9408
:100DE00025038111F4CF0E94890B882369F38A813E
:100DF000882351F380910C0482FFE6CF82E00E94A9
:100E0000340CE2CF90E080E00E94EE2690E080E09B
:100E10000E9413270E94B00B0E94D10B0E94DB128C
:100E20000E94BF1208950E94780B0E940207089545
:100E30000E94A00B0E941307089592959F70963010
:100E400091F058F4925F9F70923058F4803F19F0FF
:100E500030F4883E30F481E008959A5FF4CF843F07
:100E6000D1F380E00895883EB0F3813FD1F7F3CF0E
:100E7000FC0183819481892B29F0808191818923D0
:100E80008F3F11F480E00895808191810E949F0836
:100E90000E941D070895A5E0B0E0E1E5F7E00C949D
:100EA000DD2F2596E2E00C94F92FA6E0B0E0EBE50B
:100EB000F7E00C94DD2F2696E2E00C94F92F0895CC
:100EC0000E945F0708950E946007909399028093A3
:100ED0009802089508950E9463070895209198024A
:100EE00030919902822B932B0E94630708952091E1
:100EF000980230919902822393230E9463070895F8
:100F00002091980230919902822793270E946307CB
:100F100008950E945F0708950E94890708950E941E
:100F20008C079093970280939602089590E080E05A
:100F30000E948F07089521E030E0A90102C0440F0C
:100F4000551F8A95E2F7CA010E948F07089521E094
:100F500030E002C0220F331F8A95E2F7809196029B
:100F600090919702822B932B0E948F07089521E086
:100F700030E002C0220F331F8A95E2F720953095AA
:100F80008091960290919702822393230E948F076B
:100F9000089521E030E002C0220F331F8A95E2F766
:100FA0008091960290919702822793270E948F0743
:100FB00008952091960230919702822B932B0E94E4
:100FC0008F070895209196023091970282239323F0
:100FD0000E948F07089520919602309197028227F0
:100FE00093270E948F0708950895262F277091E078
:100FF00001C0990F2A95EAF723E0769567952A951F
:10100000E1F7660F771F660F771FFA01E60FF71FEC
:1010100050E040E0682F70E08191DF0111979B0163
:10102000042E02C0369527950A94E2F72170219587
:101030002827292328272C934F5F5F4F44305105E1
:1010400059F70895A82FA77023E0969587952A95BC
:10105000E1F7880F991F880F991FFB01E80FF91F0F
:1010600050E040E080E0219130E00A2E02C0369549
:1010700027950A94E2F721703327042E01C0220F2E
:101080000A94EAF7822B4F5F5F4F4430510559F7BE
:101090000895262F943070F48C3060F4682F70E03F
:1010A0008CE0989F600D711D11244EE752E0822F55
:1010B0000E94F5070895292F943068F48C3058F475
:1010C00090E06EE772E03CE0239F800D911D1124BB
:1010D0000E942208089580E00895B0E0A0E0E3E7D0
:1010E000F8E00C94D62F7C010091960210919702A3
:1010F0008091980290919902082B192BCFE0D0E0B3
:10110000CC24C394D12CBC2EC6010C2E02C0880F57
:10111000991F0A94E2F780239123892B49F42197A0
:1011200090F7B12C8B2DCDB7DEB7E9E00C94F22F00
:10113000B7018C2F0E94E50E019789F3F3CFCF936F
:10114000DF93EC010E946D08BE010E94E50EDF9165
:10115000CF9108951F93CF93DF93EB0190917D0280
:10116000992339F0CB010E949F08DF91CF911F9105
:101170000895882369F0CB010E946D08182F682F0D
:10118000CE010E944908BE01812F0E94E50EEDCFDD
:10119000CB010E945B08182FF6CF1F93CF93DF93EC
:1011A000C0919A0216E080919B028C1304C0DF91DB
:1011B000CF911F910895D0E01C9FF0011D9FF00D6D
:1011C0001124E456FD4F40815181628173818481F5
:1011D00095810E9455072196C770E5CF4091CC02BA
:1011E0005091CD026091CE027091CF028091D002D9
:1011F0009091D1020E94550708951F93CF93DF93DA
:101200008091D102807F09F049C08091CE0288236D
:1012100009F444C080919A02C0919B026091CC0273
:101220007091CD02A091CF02B091D002D62FD723DA
:1012300016E0C81799F190E0109711F0DF3F19F40C
:1012400001968770F6CF189F9001199F300D1124D9
:10125000F901E456FD4F41814713F2CF4081461317
:10126000EFCF42814111ECCF438154814A1B5B0B8C
:10127000483C510528F78091D1028F70806180939E
:10128000D102F901EF55FD4F80818F70806180831D
:101290008CEC92E00E94D8060E94CD08DF91CF919D
:1012A0001F910895A1E1B0E0E8E5F9E00C94D52F95
:1012B0008C0185E0F801DE011D9601900D928A9562
:1012C000E1F7F801E2808CECC82E82E0D82E609124
:1012D000CF027091D0026115710509F44EC1909151
:1012E000CC022091CD02892F82238F3F09F445C182
:1012F00040815181A380B480F090CE02F501E61BBD
:10130000F70BFF2009F4EAC08091D102382F307F1B
:10131000E83CF10508F0A3C031116DC0FE2C251387
:1013200016C0941314C0E11012C08F7080618093B6
:10133000D1020E94EE08C6010E94D8068091D10217
:10134000F80185838F2D6196EAE00C94F12FA114AA
:10135000B10429F0842F85238F3F09F027C180E055
:10136000F82FF170DF2E80FF3CC080919A0220910F
:101370009B0236E0821315C04D875E878D859E8562
:101380000E949F08292F22952F702230F0F02430E0
:1013900018F59F70F1F0F8019581907FD1F4D12C70
:1013A0001EC090E0389FF001399FF00D1124E456E3
:1013B000FD4F6181651306C06081641303C06281C3
:1013C000E6120FC001968770D5CF9F7011F0882369
:1013D00031F3805E883018F3C8010E94D806FD2CD6
:1013E000B1CFEE2009F4AECF8091D102816080931D
:1013F000D102F12CA7CF251306C0941304C0F80125
:10140000EE2009F487C0C8010E943807882319F12B
:10141000EE2009F18091D102803270F02091CC024F
:101420003091CD0238872F831986BB86AA868C8798
:10143000CE0107960E94D80686E0F801ACECB2E037
:1014400001900D928A95E1F70E94FD080E94EE0836
:10145000FF24F39477CFC8010E94D806F9CF311149
:1014600013C07A2DB98AA88A6E2D89890E944B07EC
:101470008CEC92E00E94D80686E0F60111928A95E3
:10148000E9F70E94EE08B5CF25130FC094130DC0E5
:10149000E1100BC0F8018583C8010E94D80686E0E0
:1014A000F60111928A95E9F74DCFC8010E943807DD
:1014B000882389F2EE2079F28091D102803208F4FB
:1014C000BBCF2091CC023091CD023A8329831B827D
:1014D000BD82AC828E83CE010196ACCFE83CF10593
:1014E00008F03EC0FE2CEE2009F4B5CF25132AC02B
:1014F000941328C08091D10280FD1BC0982F907F4B
:10150000C1F0F8018583903F31F0982F907F905F74
:101510008F70892B8583C8010E94D80686E0F80168
:10152000ACECB2E001900D928A95E1F70E94EE08D2
:1015300009CF86E0F801ACECB2E001900D928A95FB
:10154000E1F700CFC8010E943807811175CF809163
:10155000D10281608093D102C8010E94D806F2CEE8
:101560007A2DB98AA88A6E2D89890E944B0786E058
:10157000F60111928A95E9F7D9CFEE2009F46BCFE5
:10158000C8010E943807F82E882309F464CF86E04A
:10159000F801ACECB2E001900D928A95E1F78CEC89
:1015A00092E00E940A040E94FD08C0CF81E08E25CF
:1015B000D7CEACE0B0E0EFEDFAE00C94DC2F4F8337
:1015C000588769877A878B879C87CE0107960E9408
:1015D0005209882369F08A859B85892B39F04F81D0
:1015E0005885842F85238F3F09F06BC016E05FC0BC
:1015F00086E0FE013796DE01119601900D928A95E4
:10160000E1F78A859B85892B89F388859F818923CA
:101610008F3F61F320919B0230E0C90101968770F2
:10162000992740919A024817190671F40E941807E9
:1016300010929B0210929A0286E0ECECF2E0DF013D
:101640001D928A95E9F7D2CF96E0929FD001939FA1
:10165000B00D1124A456BD4FFE01319601900D929C
:101660009A95E1F780939B020E94CD08BFCF819F9E
:10167000C001112484569D4F0E9452098823E9F02D
:10168000E0919A021E9FF0011124E456FD4F408123
:10169000518162817381848195810E945507809177
:1016A0009A0290E001968770992780939A02809120
:1016B0009A0290919B028913DACF2C96E3E00C9466
:1016C000F82F69857A858B859C850E9455078ECF7A
:1016D000682F8091CD019091CE010E9480270895BE
:1016E000682F8091CD019091CE010E9483270895AB
:1016F0008091CD019091CE010E948627089580911E
:10170000DA0285958595859508958091DA0287702E
:1017100008959091DA02977081E009F480E00895CD
:101720008091E50208959091E502892B8093E5026E
:10173000089580959091E50298239093E50208958D
:101740001092E50208959091E402892B8093E402BF
:10175000089580959091E40298239093E40208956F
:101760001092E40208958091DB02089508950E948A
:10177000B60B089590910C0492FF08C09091DB0283
:10178000981721F08093DB020E94B70B0895809197
:10179000DB02882329F01092DB0280E00E94B70B65
:1017A0000895CF93DF93E091CD01F091CE01809128
:1017B000E5028083E091CD01F091CE01808190918E
:1017C000E402892B80839091DB02992381F0E091E0
:1017D000CD01F091CE018081892B80838091CD0154
:1017E0009091CE010E94382781110E94C70BC091B1
:1017F000CD01D091CE0148E050E062ED72E0CE0123
:101800000E946030892B59F088E0FE01A2EDB2E021
:1018100001900D928A95E1F7CE010E94D526DF91C5
:10182000CF91089508950E94120C089590910C0490
:1018300092FF11C098E0899F90011124622B609360
:10184000DA020E94A7078091DA0285958595859531
:101850000E94130C08950E94A70708951092DA02BF
:1018600080E00E94130C08959091DA0280958923FC
:101870008093DA02282F277091F4282F082E000C6D
:10188000330B9217130659F090910C0492FF07C086
:101890008595859585950E94B7070E942E0C089521
:1018A00090910C0492FB222720F9281769F080FB05
:1018B00092F990930C0480910B0490910C040E9477
:1018C000980C82E00E94340C089580910C0482FBF5
:1018D000882780F991E089270E94500C089581E0C3
:1018E0000E94500C089580E00E94500C08956FEF04
:1018F0007FEF90E080E00E94C230089590E080E0A9
:101900000E948E3021E0873E9E4F09F020E0822F1A
:10191000089582E090E00E948630089583E090E090
:101920000E948630089584E090E00E948E300895F1
:10193000BC0184E090E00E94C2300895AB01BC017C
:101940008FE090E00E94B6300895AB01BC0183E1C6
:1019500090E00E94B630089560E070E0CB010E94F4
:10196000A50C089560E070E0CB010E949E0C0E94DF
:10197000AC0C089567EE7EEF90E080E00E94C230EC
:1019800060E082E090E00E94A43060E083E090E0BC
:101990000E94A430109299021092980260E074E1C3
:1019A00084E090E00E94C23060E086E090E00E9417
:1019B000A4306FEF87E090E00E94A43040E050E058
:1019C000BA0188E090E00E94B63060E08DE090E0DF
:1019D0000E94A43040E050E0BA0188E190E00E940B
:1019E000B63060E087E190E00E94A43040E050E033
:1019F000BA018CE190E00E94B63070E060E080E2D5
:101A000090E00E94C23040E050E0BA0188E190E0EE
:101A10000E94B6300E94B20C08950E94BA0C08953C
:101A2000682F8EE090E00E94A43008950E9449281B
:101A30006093F4027093F5028093F6029093F7029C
:101A40006093F0027093F1028093F2029093F3029C
:101A50000895089508950E942A0D089508950E94FA
:101A60002E0D08958FEC9FE00E94BE260E94290D46
:101A70000E942B0D089581E008950E943B0D08956A
:101A8000089508950E94400D0E94410D08950E94FE
:101A9000EE0F0E94A9030E94F52208950E943428A7
:101AA0000E94C9100E94470D0E942F0D0895AAE0C0
:101AB000B0E0EDE5FDE00C94D12F0E94DF1028EEA0
:101AC000822E22E0922E640110E0F601E190F19066
:101AD0006F01812F0E9414101F5F143009F450C051
:101AE000E816F90691F38091F80281FD0E941D101D
:101AF0000E943D0D682E10E0812F0E9414107C0181
:101B0000F401A190B1904F018A159B0591F100E07D
:101B1000CC24C394D12CAE24BF24C5018C219D219B
:101B2000892BF1F077247394C7018C219D21892B97
:101B300009F4712C662079F00E831F8378860E9449
:101B40003D288160782F9A8789874E815F816885DB
:101B50008A850E94D503472D602F812F0E948E1EFB
:101B60000F5FCC0CDD1C0C30C1F6F4013297F18212
:101B7000E0821F5F143009F0BFCF0E94160D22C013
:101B8000E816F90609F0AFCF0E943D288C0180913C
:101B9000E6029091E70208171907A1F08FEF8983F9
:101BA0008A831B820E943D288160782F9D838C83CD
:101BB00049815A816B818D810E94D5031093E70280
:101BC0000093E6020E943D220E94FD120E94BC0387
:101BD0002A96EEE00C94ED2FCF93DF930E94EA0E4D
:101BE000EC01811520E59207D0F5811530E49307CB
:101BF00008F086C0803E910518F58D3C910508F0EF
:101C00007DC0883A910570F4853A910508F06EC060
:101C10008130910501F10097F1F00497E0F4D0E0F4
:101C2000C0E019C0813C9105D0F7C85AD0E0CC0F74
:101C3000DD1FC05EDD4F0990D881C02DD4640BC07C
:101C40008115904208F0A8C0C11581E0D80718F4AA
:101C5000C83ED10520F7CE01DF91CF91089580369F
:101C600022E5920710F5803432E5930708F052C060
:101C70008032924508F047C0C11582E5D80708F4C4
:101C80007DC02C2F2695269540E2249F900111249B
:101C90008C2F8370C1E0D0E002C0CC0FDD1F8A958D
:101CA000E2F7C22BD32BDD68D6CF803A22E592072C
:101CB00060F4803832E5930708F441C0CF71D0E07A
:101CC000DC2FCC27C46FD06AC6CF803C42E5940796
:101CD00008F449C0C03E82E5D80708F0A0CFDC2F49
:101CE000CC27CC27DF71C06FD06AB5CFC55AD0E002
:101CF000CE5ADD4FC881D0E0D064ADCFD065ABCF38
:101D0000DF70D06AA8CFCF71D0E0DC2FCC27C16FB5
:101D1000D06AA1CF282F26952695277080E2289F8C
:101D2000900111248C2F8370C1E0D0E002C0CC0F51
:101D3000DD1F8A95E2F7C22BD32BDC688CCF282FCE
:101D400026952695277040E2249F900111248370E8
:101D5000C1E0D0E002C0CC0FDD1F8A95E2F7C22BB4
:101D6000D32BDA6878CF8F710E948C0FC82FD0E008
:101D7000DC2FCC27CC27DF71D0626DCF8C2F8F71F9
:101D80000E948C0F35E0D695C7953A95E1F7CF7054
:101D90009C2FEC01D0695FCF8D2F8F710E948C0F2B
:101DA00090E0982F882788279F719C012C2BE901B0
:101DB000E3CF462F743030F46C3020F4672F0E944C
:101DC000B402089590E080E008950E94D90E0E9428
:101DD000EC0D089582389105B9F1B0F48133910585
:101DE00009F47DC048F48932910509F46DC08A3246
:101DF000910509F47BC008958533910509F45FC00E
:101E00008933910509F10895833E9105D9F138F49C
:101E1000803E910529F1823E910579F10895863E33
:101E20009105D9F1873E910509F43EC0843E9105A4
:101E300041F520910C0421FF24C080910B0484FD06
:101E400019C087EE90E0089520910B04237009F0EB
:101E50005AC020910C0423FF14C089E290E0089539
:101E600020910B0420FD38C030910C0430FF09C0D4
:101E700024FF43C090E080E0089520910B0422FDF0
:101E8000F7CF089520910B0422FD3AC030910C0445
:101E900030FD39C024FFF5CFEDCF20910B0423FF97
:101EA000F0CF24FDE7CFCDCF20910B0423FD2EC032
:101EB00030910C0431FFEECF84EE90E00895209134
:101EC0000B0425FFDECFC9CF20910B0425FD21C0D7
:101ED00020910C0423FFD5CF89E390E0D2CF20914D
:101EE0000B0426FFCECF8AE290E0089520910B04E8
:101EF00026FFC7CF81E390E0089583EE90E0089538
:101F000082EE90E0089580EE90E0089586EE90E0F5
:101F1000089585E390E0089590910B0492FF06C028
:101F2000282F28712830F9F4877F846093FF06C03A
:101F3000282F28712831F1F4877E846120910C04C8
:101F400020FF06C0382F38713830D9F4877F816080
:101F500021FF06C0282F28712831D1F4877E8161A6
:101F600094FD877E0895282F24712430F9F68B7F05
:101F70008860DCCF282F2471243101F78B7E8861A3
:101F8000DDCF382F3171313019F78E7F8860E0CF87
:101F9000282F2171213121F78E7E8861E1CF80E0E9
:101FA00008950E94770C08950E94DF102FEF86E7B6
:101FB00091E0215080409040E1F700C000000E9475
:101FC000DF1080E00E94141080FF04C00E94D10F37
:101FD0000E94A42808950E94D40F08950E947E0CA8
:101FE000811102C00E940D0D0E94890C8093F8029D
:101FF0000E94930C90930C0480930B040E94EB0FAF
:102000000E948E0C90E00E946B0780919602909146
:1020100097020E948C07089508950E940C1008955D
:1020200008950E9410100895E82FF0E0EE0FFF1FB2
:10203000EB5EFB4F808191810895089580EA8A9537
:10204000F1F7089500C008950E941E100895F894B5
:10205000E82FE295EF70F0E031A1282F2F7081E09A
:1020600090E001C0880F2A95EAF7982F9095932366
:1020700091A392A1892B82A378940895CF93DF93A3
:1020800080E90E94271083E30E94271082E30E94C8
:10209000271081E30E942710C5E5D2E089918F3F88
:1020A00011F00E94271082E0C136D807B9F7DF91FE
:1020B000CF910895AF92BF92DF92EF92FF920F936C
:1020C0001F93CF93DF938C01D62EC62FD0E0CE0185
:1020D0008F599D4F7C01FC0120812F3F09F44CC09A
:1020E000F894E22FE295EF70F0E031A12F7081E0DB
:1020F00090E001C0880F2A95EAF7932F982B91A3BF
:1021000092A18095892382A378940E942210E5E50C
:10211000F2E041E050E0B12CA12C21912F3FB1F130
:10212000A22FA295AF70B0E090968C9190E02F70A6
:1021300002C0959587952A95E2F780FD27C0CA01D0
:10214000A82AB92A440F551F82E0E136F80729F77B
:10215000F70180818F3F11F00E94271061E0A114E8
:10216000B10409F460E08D2D0E942410CC0FDD1F16
:10217000C00FD11FB982A882DF91CF911F910F911B
:10218000FF90EF90DF90BF90AF90089590E080E0D7
:10219000D7CF0E943E1088E0E5E1F4E0DF01982F00
:1021A0001D929A95E9F7EDE0F4E0DF011D928A9522
:1021B000E9F784E00E941A110E9406030895A8E03E
:1021C000B0E0E5EEF0E10C94DA2F8E010F5F1F4FC7
:1021D00088E0F80111928A95E9F7F12C6F2DC8017A
:1021E0000E945A10F394F4E0FF12F8CF48E050E058
:1021F000B8018DE094E00E94603021E0009709F47E
:1022000020E0892B41F088E0F801ADE0B4E00190D6
:102210000D928A95E1F744E065E174E08DE094E089
:102220000E941B11182F0E940903812F2896E5E0B8
:102230000C94F62F0895CF92DF92EF92FF921F93A6
:10224000CF93DF936C017B01C42F222349F081E0FF
:102250008093FB020E943D289093FA028093F9023A
:102260001091FB0211110AC010E0812FDF91CF9174
:102270001F91FF90EF90DF90CF9008958091F90229
:102280009091FA020E945528059770F3D0E0CC0F88
:10229000DD1FAE01B601C7010E946030892B41F0FD
:1022A000AE01B601C7010E946D301092FB02DDCF76
:1022B00010E0FBCF0E942D2A0E944E0D0E943A2A68
:1022C00008950E943F2A0E94570D0E94592A08959E
:1022D0000E94D6270E94132A0E94320D0E945A1192
:1022E0000E9461110E94420DFBCF8091020380FF8A
:1022F0000DC06091D40170E0660F771F60387105E2
:1023000070F56115710569F1862F089581FF07C089
:102310006091D40184E0689FB0011124EFCF6091F7
:10232000D40182FD0AC0809101038823A9F0209185
:10233000D3016091D401821710F088E0ECCF869F22
:10234000C001112433E0880F991F3A95E1F7622FFD
:1023500070E00E94722FD2CF68E070E0D5CF8FE797
:10236000089581E008958091020380FF0CC0609180
:10237000D00170E075956795759567956115710544
:1023800049F1862F089581FF06C06091D00170E069
:1023900075956795F3CF6091D00182FD0BC0909148
:1023A00000039923A1F06091CF018091D00196178D
:1023B00038F0682F70E06038710500F38FE70895FA
:1023C000899FC001112470E00E94722FF4CF61E058
:1023D00070E0D7CF81E008958D3C31F40E947511F3
:1023E00081958093060308958E3C19F40E9475111F
:1023F000F8CF8F3C31F40E947511819580930503CD
:102400000895803D19F40E947511F8CF893D29F493
:102410000E94B3118093070308958A3D21F40E941E
:10242000B3118195F7CF8B3D31F40E94B3118195A3
:102430008093080308958C3D19F40E94B311F8CFDE
:102440009FE2980F983070F4815D990B21E030E0A5
:1024500001C0220F8A95EAF780910403822B8093B2
:10246000040308958D3D31F48091020381608093CF
:10247000020308958E3D21F4809102038260F7CF1C
:102480008F3DB9F7809102038460F1CF409105033D
:102490008D3C59F48091060387FF0DC0109206030E
:1024A00041110BC01092010308C08E3C81F4809151
:1024B000060318169CF3442381F080910703909142
:1024C0000803892B09F05AC01092000308958F3C2D
:1024D00049F447FFF0CF1092050380910603811164
:1024E000ECCFE0CF803D19F41416ACF3E4CF90911B
:1024F0000703893D29F41916F4F610920703DBCF80
:102500008A3D19F497FFD7CFF8CF909108038B3D00
:1025100029F497FFD0CF10920803CDCF8C3D19F44A
:102520001916CCF3C8CF9FE2980F983090F4815DD4
:10253000990B21E030E0B90102C0660F771F8A9540
:10254000E2F7CB01809590910403892380930403E3
:10255000B2CF8D3D31F4809102038E7F80930203D0
:10256000AACF8E3D21F4809102038D7FF7CF8F3D5E
:1025700009F0A1CF809102038B7FF0CF08950E94D4
:102580003D289C019091050380910603982B21F032
:102590003093FF022093FE0290910703809108037D
:1025A000982B21F03093FD022093FC0283E093E00E
:1025B0000E94E026089586E0E3E0F3E0DF011D924B
:1025C0008A95E9F71092010310920003109202031A
:1025D0000895FC01828181110EC0838181110BC09D
:1025E0008481811108C091E08581811101C090E052
:1025F000892F8170089581E0FCCFA6E0B0E0E3E090
:10260000F3E10C94DC2F86E0E3E0F3E0DE011196C9
:1026100001900D928A95E1F710920503109206033E
:1026200010920703109208038B819C81892B89F0FB
:102630008091FE029091FF020E945528AC0190917A
:1026400001039923C9F18091D5018417150608F477
:1026500040C08D819E81892B91F08091FC029091E8
:10266000FD020E945528AC0190910003992309F4C2
:1026700071C08091D1018417150608F479C0BE019C
:102680006F5F7F4F83E093E00E948D27811105C02B
:1026900083E093E00E94E91281110E94BF1286E05C
:1026A000FE013196A3E0B3E001900D928A95E1F727
:1026B0002696E3E00C94F82F2091D6018AE0289F1B
:1026C000900111242417350720F69F5F9093010392
:1026D00002C09F3FD1F71B81112359F00E94751151
:1026E0009FEF11160CF491E0899F802D11248093A7
:1026F00005031C81112359F00E9475119FEF1116DB
:102700000CF491E0899F802D112480930603309171
:102710000503332309F49DCF20910603222309F4F6
:1027200098CF45EB3403C0011124992359F09093BD
:10273000050345EB240390011124332339F0309332
:10274000060387CF81E080930503F3CF81E0809378
:1027500006037FCF2091D2018AE0289F90011124A7
:102760002417350708F08BCF9F5F9093000302C0BA
:102770009F3FD1F71D81112359F00E94B3119FEFA4
:1027800011160CF491E0899F802D1124809307038A
:102790001E81112359F00E94B3119FEF11160CF402
:1027A00091E0899F802D11248093080330910703C5
:1027B000332309F464CF20910803222309F45FCF67
:1027C00045EB3403C0011124992359F0909307037A
:1027D00045EB240390011124332339F0309308038F
:1027E0004ECF81E080930703F3CF81E0809308030D
:1027F00046CFEF92FF920F931F93CF93DF93EB019E
:10280000E82FD1110EC0442321F0F0E0E457FD4F32
:10281000E4916E2F7E2F8E2FCDB7DEB7E6E00C94BD
:10282000F52F0D2F10E0282F30E0442329F02457F6
:102830003D4FF901249130E0F6E0CF9FC001112413
:10284000EFEFF0E0BF010E945E2FAB018C2F90E014
:10285000880F991FA5E5A49FB001A59F700D1124B5
:10286000861B970B982F990F980FBF01601B710B58
:10287000629FD001639FB00D729FB00D11248B2F0A
:102880009D9FB0011124672F7727EF01C61BD70B3F
:10289000BE01629FE001639FD00D729FD00D112495
:1028A0007F01E91AF108E09EB001E19E700DF09EF3
:1028B000700D1124672F7727E61BF70BE29F80012D
:1028C000E39F100DF29F100D1124E12F722F423063
:1028D000510599F048F44115510569F04130510511
:1028E00081F0EB2F8D2F07C04430510569F080F047
:1028F00046305105B1F76E2F8FCFE22F7B2F812FFE
:10290000FACFE22F7D2FF7CFEB2F822F712FF3CF4E
:102910007B2F822FED2FEFCF41E00E94F913089516
:1029200030E020E0869F212D969F200D311D11243F
:10293000C9010895AC018230910508F408959FEF14
:10294000413E8EE1580740F49A0195E0369527956F
:102950009A95E1F798E0920F61E0E62FE90FFF27E3
:10296000FF1F9F0135952795822F229FF001239FFE
:10297000F00DF00D11244E175F0738F49FEF920F02
:10298000961758F78FEF860F08952F3FE9F361E010
:10299000620FF6CF4091DD015091DE0125E038E075
:1029A000429FC001439F900D529F900D1124875E5E
:1029B000994C9093DE018093DD01890F0895E82FF3
:1029C00086FDE0952E2F2F7086FD2F5FE695E6950C
:1029D000E695E670F0E0EB59FD4F9181929F902DC6
:1029E000212D112492959F702295207F922B20817A
:1029F000920F87FD919580E8890F0895E42FF0E00C
:102A0000EE0FFF1FEC5CFE4F408134EE439F412DE3
:102A10001124E72FF0E050E0445E5F4FDA01A21B83
:102A2000B1099D01B7FF03C031952195310993E0AC
:102A3000220F331F9A95E1F7AF01421B530B9A0106
:102A400057FD20E0279F212D1124722F0895E42F98
:102A5000F0E0EE0FFF1FEC5CFE4F408134EE439F31
:102A6000412D1124E82FF0E050E0445E5F4FDA0181
:102A7000A21BB1099D01B7FF03C031952195310912
:102A800093E0220F331F9A95E1F7AF01421B530BDE
:102A90009A0157FD20E0582F259F212D1124822FC8
:102AA0000895622F0895E42FF0E0EE0FFF1FEC5C15
:102AB000FE4F6081621B0895E42FF0E0EE0FFF1FD0
:102AC000EC5FFE4F61A9621B0895322F50E0FA01BE
:102AD000EE0FFF1FEC5FFE4F91A9905297FD91956D
:102AE000440F551FFA01EC5CFE4F2081231B330B72
:102AF000290F311D97FD3A95620F0895EF920F93BC
:102B0000972F23E0029FB0011124759567956E0DF4
:102B1000792F0F91EF9008950F93CF93DF93D72FD5
:102B2000C82F47FD419588E390E0841B910947FD3C
:102B30009395889FB001899F700D700D1124229F7D
:102B4000C001239F900D900D1124860F971F0E94A6
:102B50009A14982F990F890F682F600F7D2F8C2F53
:102B6000DF91CF910F9108950F931F93522F10E093
:102B7000F801EE0FFF1FEC5FFE4FA1A9A052BB0BA7
:102B80009D015203F001539FF00D1124000F111FFE
:102B9000D801AC5CBE4F0C910057110B4003900163
:102BA000419F300D11242E0F3F1F37FF02C02158C7
:102BB0003F4F220F232F221F330B620F1F910F91C4
:102BC00008950F931F93522F10E0F801EE0FFF1F8F
:102BD000EC5FFE4FA1A9A052BB0B9D015203F00177
:102BE000539FF00D1124000F111FD801AC5CBE4F94
:102BF0000C910057110B40039001419F300D11249F
:102C00002E0F3F1F37FF02C0215C3F4F96E03595E6
:102C100027959A95E1F7620F1F910F9108950F93F1
:102C20001F9310E0F801EE0FFF1FEC5CFE4F908148
:102C3000905797FD9195000F111FF801EC5FFE4F23
:102C400001A90052110B2003F001219FF00D112466
:102C500008E310E0091B110997FD1395400390014B
:102C6000419F300D1124E20FF31F9F01220F331FEC
:102C70002E0F3F1F37FF02C021583F4F220F232F37
:102C8000221F330B620F1F910F9108950F931F9313
:102C9000CF93DF938B01D82FC42F822F0E94DF1494
:102CA000EC2FF0E0EE0FFF1FEC5CFE4F9081905890
:102CB000890F87FD8195880F682F2CE0629F612D19
:102CC0001124600F712F8D2FDF91CF911F910F91E4
:102CD0000895E42FF0E0EE0FFF1FEC5CFE4F9081B3
:102CE000921B97FD9195292F38E1239F212D1124C7
:102CF000620F08952091210430E1230F08F42FEF93
:102D000060E1822F90E00E949014BC0188EB9BE070
:102D10000E945E2F90E080E008954095282F429F0A
:102D2000412D1124842F089522E8241B08F420E06B
:102D3000620F0895EF92FF920F93970195E0099F1C
:102D4000200D311D11242F3F310519F010F02FEF08
:102D500030E02095382F320F08F43FEF832F0F918A
:102D6000FF90EF900895EF92FF920F931F930E0D37
:102D70001F2D111DF90137FF03C0F195E195F109F0
:102D800024E0EE0FFF1F2A95E1F7EF3FF10519F060
:102D900014F0EFEFF0E09A0157FF03C03195219551
:102DA000310994E0220F331F9A95E1F72E173F0760
:102DB0000CF4F901E00FF11FEF3FF10519F010F0ED
:102DC000EFEFF0E0E095282F3E2F230F08F42FEFD0
:102DD000822F1F910F91FF90EF900895EF92FF9235
:102DE0000F93972F093438F4B701601B71096F3FB7
:102DF000710519F010F06FEF70E0485F5F4F4131DF
:102E0000510540F0A901485F5F4F4131510510F075
:102E10006FEF70E06095482F460F08F44FEF842F56
:102E200037FF02C02D5F3F4F359527953595279584
:102E300060911E04620F792F0F91FF90EF9008951B
:102E4000EF92FF920F939701201B31092F3F31051D
:102E500019F010F02FEF30E0322F3095482F430F4C
:102E600008F44FEF842F620F0F91FF90EF900895B9
:102E7000EF92FF920F939701201B31092F3F3105ED
:102E800019F010F02FEF30E02095382F320F08F4B2
:102E90003FEF832F0F91FF90EF9008959091C6031D
:102EA000892B8093C6030895FC019B01009729F4A8
:102EB00080E077FF2BC080E80895AC0197FF04C045
:102EC00044275527481B590BB901640F751F37FD5F
:102ED00010C0241B350BC901A5E0880F991FAA95C6
:102EE000E1F70E94722F80E2861BF7FF0FC08195E9
:102EF0000895CB0165E0880F991F6A95E1F7BA0143
:102F0000621B730B0E94722F80E6EECF08950F9321
:102F10001F93CF93DF93D62F172FC82FC901272FC9
:102F2000201B022FBA010E945417982F990F990F56
:102F3000782F791B700F719F712D11246D2F8C2F9D
:102F4000DF91CF911F910F9108950F931F93CF930E
:102F5000DF93D62FC72F182FC901212F201B022F37
:102F6000BA010E945417982F990F990F891B800F4F
:102F7000282F219F212D1124822F6D2F7C2FDF914F
:102F8000CF911F910F910895EF920F931F93CF93BD
:102F9000DF93D62F172FC82FC9010E19070FBA01BB
:102FA0000E945417702F781B719F712D11246D2F63
:102FB0008C2FDF91CF911F910F91EF900895EF9299
:102FC0000F931F93CF93DF93D62FC72F182FC901CD
:102FD0000E19010FBA010E945417081B202F219FC0
:102FE000212D1124822F6D2F7C2FDF91CF911F91E6
:102FF0000F91EF9008950F93CF93DF93D72FC82FA2
:10300000C901BA010E945417682F600F7D2F8C2FC1
:10301000DF91CF910F910895EF920F93CF93DF93AC
:10302000D72FC82FC9010E19BA010E945417602F5B
:10303000681B7D2F8C2FDF91CF910F91EF9008951A
:1030400046E050E06CE170E08DE194E00E94943045
:103050001092C60308950E948C140895EDE1F4E0E7
:1030600085E380838091E8019091E901A091EA01D4
:1030700081839283A3838FE784838FEF85830E946C
:103080002018089580E008950F931F93CF93DF9346
:10309000C82FD62F8A010E9442189CE0C99FB00118
:1030A00011246C5F7E4F6D0F711DFB0190819F3F5E
:1030B00029F0F801E80FF11D90838F5FDF91CF9128
:1030C0001F910F910895E0917302F0917402099598
:1030D0000895E0916F02F091700209950895B0E0B3
:1030E000A0E0E5E7F8E10C94CE2F3C012B01FC01B8
:1030F000C0818BE0C89FC02D11241BE01C0FF12E56
:10310000143310F033E3F32E60912104669580911F
:103110002304909124040E949014382ED0E0CE0114
:10312000880F991F9C012C5F3E4F6901CF1548F015
:1031300081E0133308F080E0CDB7DEB7E1E10C9415
:10314000EA2FFE01E656FE4F8081F301918189232B
:1031500079F1F60180A9282F2057330B590181A955
:10316000E82FE052FF0B4F01AA9C9001AB9C300D61
:10317000300D1124EE9FC001EF9F900D900D112492
:10318000820F931F0E949A14082F60911E04709161
:103190001F0480912004E32C9401A501F2010995FC
:1031A0000E942B18462F282F672FCE010E946918E6
:1031B000F2E0CF0ED11C2196B9CF64EC77E10E94EA
:1031C0006F1808956FED77E10E946F1808956EE70C
:1031D00075E10E946F1808956CE078E10E946F1805
:1031E0000895B0E0A0E0E7EFF8E10C94D32F5C0184
:1031F0006B01FC01C0818BE0C89FC02D11241BE036
:103200001C0F912E143310F033E3932E60912104A0
:10321000669580912304909124040E949014882E36
:10322000D0E0CE01880F991F9C012C5F3E4F7901A1
:10323000C91548F081E0133308F080E0CDB7DEB760
:10324000ECE00C94EF2FFE01E656FE4F8081F50175
:1032500091818923C1F0F70121A92052330B40A9A4
:103260004057550B60911E0470911F0480912004FB
:10327000082DF60109950E942B18462F282F672F3D
:10328000CE010E946918F2E0EF0EF11C2196D0CF1A
:1032900067E877E10E94F118089565EA77E10E94F6
:1032A000F11808956CE875E10E94F11808956BEF2C
:1032B00077E10E94F1180895B0E0A0E0E2E6F9E1BC
:1032C0000C94D62F7C018B01FC01C0818BE0C89F40
:1032D000C02D11249BE0D92EDC0ECD2CF3E3FD157F
:1032E00010F483E3C82E609121046695669521E071
:1032F000620F08F46FEF80912304909124040E94E0
:103300009014B82ED0E0CC1550F081E092E39D15DA
:1033100008F480E0CDB7DEB7E9E00C94F22FFE01AF
:10332000E656FE4F8081F7019181892391F06091EB
:103330001E0470911F04809120042B2D4C2FF80146
:1033400009950E942B18462F282F672FCE010E9427
:1033500069182196D8CF6EEF74E10E945C19089528
:1033600067E275E10E945C19089561E575E10E94CC
:103370005C19089563E575E10E945C1908956CE598
:1033800075E10E945C19089565E675E10E945C197B
:10339000089566E476E10E945C19089569E676E195
:1033A0000E945C190895B0E0A0E0E9EDF9E10C9409
:1033B000D22F5C016B01FC01C0818BE0C89FC02D46
:1033C00011241BE01C0F912E143310F033E3932EC5
:1033D0006091210466956695809123049091240460
:1033E0000E949014F82E80E48F0D0E94DF1490E864
:1033F000892E880E8F2D0E94DF1420E8722E780E01
:10340000D0E0C91548F081E0133308F080E0CDB773
:10341000DEB7EDE00C94EE2FFE01E656FE4F808104
:10342000F50191818923A1F060911E0470911F0420
:1034300080912004EF2C0C2F272D482DF6010995A3
:103440000E942B18462F282F672FCE010E94691843
:103450002196D7CF64EB75E10E94D319089561EEF0
:1034600075E10E94D31908956FE076E10E94D319A7
:103470000895B0E0A0E0EFE3FAE10C94D52F8C01C1
:103480007B01FC01C0818BE0C89FC02D11242BE083
:10349000B22EBC0EAB2CF3E3FB1510F493E3A92E74
:1034A0002091210431E0230F08F42FEF30E050E0A9
:1034B00040E06FEF7FEF80E090E00E94A82F69016D
:1034C000D0E02C2FCA1550F081E0F2E3FB1508F490
:1034D00080E0CDB7DEB7EAE00C94F12FFE01E656AE
:1034E000FE4F8081F8019181892311F140912704D9
:1034F0004150042E000C550B47FF1CC0C6016091C3
:10350000210421E0620F08F46FEF0E949014AC01D7
:1035100060911E0470911F0480912004F7010995A9
:103520000E942B18462F282F672FCE010E94691862
:103530002196C7CFFA01E95DFB4F818982130AC04A
:10354000FA01EE0FFF1FE95DFB4F818D928D8C1507
:103550009D05A8F241505109CFCF6DE876E10E9458
:10356000391A089564E976E10E94391A0895ABE0AA
:10357000B0E0EDEBFAE10C94CD2F8C832B015F834F
:103580004E83FB01F0818BE0F89F802D112489830D
:10359000855F8A838B83843310F023E32B83309100
:1035A00027043D839981892F90E09B878A87880F24
:1035B000991FFC01EC5FFE4F6F01FC818F2F90E0A3
:1035C0009C012F5F3F4F39872887EB81FA85FE17D3
:1035D00048F081E02A81233308F080E02B96E2E175
:1035E0000C94E92FEA85FB85E656FE4F8081F201B7
:1035F0009181892301F120901E0430901F042885B9
:103600003985295D3B4F39013C81398310E029819F
:103610003D812317C8F020912004129F112D112401
:10362000B101812F0E942B18462F282F672F8A85E2
:103630009B850E9469188A859B8501969B878A874E
:1036400092E0C90ED11CC1CFF30181913F01F60177
:10365000A0A8A81ABB0881A8F3018781881A990835
:10366000AA9C9001AB9C300D300D1124889CC001A8
:10367000899C900D900D1124820F931F0E949A1423
:10368000082F6091210421E0620F08F46FEFF3012D
:10369000EE0FFF1FE752F440858996890E9490142F
:1036A0007C019401A501B101812FEE81FF81099573
:1036B0001B01F981FF5FF983182FA9CF20912704FF
:1036C00031E0231B08F420E04AE956E1BC01822FD7
:1036D0000E94B71A08954AE956E1BC0180E00E94B1
:1036E000B71A08952091270431E0231B08F420E045
:1036F00043EB56E1BC01822F0E94B71A089543EBB9
:1037000056E1BC0180E00E94B71A08952091270479
:1037100031E0231B08F420E04EEE56E1BC01822F7D
:103720000E94B71A08954EEE56E1BC0180E00E9457
:10373000B71A08952091270431E0231B08F420E0F4
:1037400040E257E1BC01822F0E94B71A089540E27F
:1037500057E1BC0180E00E94B71A08952091270428
:1037600031E0231B08F420E048E357E1BC01822F3D
:103770000E94B71A089548E357E1BC0180E00E9417
:10378000B71A0895B0E0A0E0E8ECFBE10C94D62F66
:103790007C01FC01C0818BE0C89FC02D11241BE07F
:1037A0001C0F012F143308F003E360911E04709185
:1037B0001F04809120040E942B18D62EC72EB82EED
:1037C000D0E0C01748F081E0133308F080E0CDB7B7
:1037D000DEB7E9E00C94F22FFE01E656FE4F808141
:1037E000F7019181892331F02B2D4D2D6C2DCE01C8
:1037F0000E9469182196E5CFB0E0A0E0E2E0FCE18C
:103800000C94D32F7C01FC01C0818BE0C89FC02D9C
:1038100011241BE01C0F012F143308F003E3C090A8
:103820001F04D0902004D0911E046D2F7C2D8D2D6F
:103830000E942B18B62EA72E982E609121046D0F92
:103840007C2D8D2D0E942B18D62EC72E882ED0E0D1
:10385000C01748F081E0133308F080E0CDB7DEB741
:10386000ECE00C94EF2FFE01E656FE4F9081F7013D
:103870008181892359F0282D4D2D6C2D90FD03C099
:10388000292D4B2D6A2DCE010E9469182196E0CF7B
:10389000B0E0A0E0EEE4FCE10C94D62F7C01FC014A
:1038A000C0818BE0C89FC02D11241BE01C0FD12EBE
:1038B000143310F093E3D92EC0901F04B09020046D
:1038C0002091210400E4029F012D1124D0E0CD15A8
:1038D00048F081E0133308F080E0CDB7DEB7E9E0CF
:1038E0000C94F22FFE01E656FE4F8081F701918184
:1038F0008923B9F0FE01EE0FFF1FEC5FFE4F81A997
:1039000082958F7060911E04809F600D11247C2D24
:103910008B2D0E942B18462F282F672FCE010E9437
:1039200069182196D4CFB0E0A0E0E9E9FCE10C945D
:10393000D62F8C01FC01C0818BE0C89FC02D1124C3
:103940005BE0F52EFC0EDF2CF3E3FF1510F443E3F0
:10395000D42EC0901F04B09020042091210430E4A4
:10396000E32E3E2D329F312D1124E32ED0E0CD15D4
:1039700050F081E032E33F1508F480E0CDB7DEB7C8
:10398000E9E00C94F22FFE01E656FE4F8081F8012B
:1039900091818923D9F0FE01EE0FFF1FEC5FFE4FEE
:1039A00060A9E69EB001112495E0759567959A95FA
:1039B000E1F780911E04680F7C2D8B2D0E942B183F
:1039C000462F282F672FCE010E9469182196CFCF4E
:1039D000B0E0A0E0EEEEFCE10C94D62F8C01FC01EF
:1039E000C0818BE0C89FC02D11249BE0F92EFC0EF6
:1039F000EF2CF3E3FF1510F483E3E82ED0901E04C0
:103A0000D0911F04C09020046091210466956695B2
:103A1000669580912304909124040E9490140E9442
:103A2000DF14805887FD8195880F282F3C2D239F18
:103A3000212D1124822F6D2D7D2F0E942B18D62E23
:103A4000C72EB82ED0E0CE1550F081E022E32F151E
:103A500008F480E0CDB7DEB7E9E00C94F22FFE0168
:103A6000E656FE4F8081F8019181892331F02B2D9C
:103A70004D2D6C2DCE010E9469182196E4CFB0E047
:103A8000A0E0E5E4FDE10C94D82F8C01FC01E656A2
:103A9000FE4F8081682349F1D0901F04D09120040B
:103AA000C0911E04EC2EF12C0E94CA14282FC701CD
:103AB0008C549F4F68E671E00E94722F8E199F0907
:103AC00097FD0396959587959595879523706C2F0F
:103AD000289F600D11247D2D8D2F0E942B18462FBD
:103AE000282F672FC8010E946918CDB7DEB7E7E01D
:103AF0000C94F42FFF920F931F93CF93DF938C01BD
:103B0000FC01C0818BE0C89FC02D11248BE0F82EF2
:103B1000FC0E8281D0E081112DC06091210420E152
:103B2000620F08F46FEF80912304909124040E94A7
:103B300090146AE070E00E945E2F892B59F40E9475
:103B4000CA1463E30E94522FF8016181892F90E02B
:103B50000E943F1D81E092E39F1508F480E0CDB7FD
:103B6000DEB7E5E00C94F62FF8016181CE010E94EA
:103B70003F1D21968F2DF3E3FF1508F483E38C1787
:103B80001D0609F08CF7E6CF1F93CF93DF93EC016E
:103B9000FC01E656FE4F80816823B1F00E94503050
:103BA000182F0E9450308F77782F20E8720F08F47A
:103BB0007FEF612F809120040E942B18462F282F21
:103BC000672FCE010E946918DF91CF911F91089550
:103BD000B0E0A0E0EEEEFDE10C94D82F8C01FC01EA
:103BE000C281C11122C06091210420E1620F08F45A
:103BF0006FEF80912304909124040E94901465E05B
:103C000070E00E945E2F892B51F40E94503063E3D4
:103C100070E00E94722FF80161810E94C41D8C2FF8
:103C2000CDB7DEB7E7E00C94F42FC0818BE0C89FDE
:103C3000C02D11248BE0D82EDC0E8D2DF3E3FD1565
:103C400008F483E3D0E0E82EF12CCE15DF0534F044
:103C5000C1E0F2E3FD1518F7C0E0E1CFF8016181A2
:103C6000CE010E94C41D2196F0CFB0E0A0E0EBE3AE
:103C7000FEE10C94D62F7C01FC01C0818BE0C89F33
:103C8000C02D11241BE01C0F012F143308F003E397
:103C9000C0901F04D0902004D0911E046091210494
:103CA00066956695669580912304909124040E9400
:103CB00090140E94DF14805887FD8195880F682F2B
:103CC0002CE0629F612D11246D0F7C2D8D2D0E94A3
:103CD0008C14D62EC72EB82ED0E0C01748F081E045
:103CE000133308F080E0CDB7DEB7E9E00C94F22F93
:103CF000FE01E656FE4F8081F7019181892331F064
:103D00002B2D4D2D6C2DCE010E9469182196E5CFEB
:103D1000E0917102F091720209950895CF92DF92BD
:103D2000FF920F931F93CF93DF93CDB7DEB7289702
:103D30000FB6F894DEBF0FBECDBF182F062FF42E9E
:103D40000E943B0D882309F44CC0FF2009F457C0A2
:103D5000AE014F5F5F4F602F812F0E944418F82EF5
:103D60000F2D10E08091C703800F912F911D0997AF
:103D70006CF188E090E06C01C01AD10AB801685378
:103D80007C4FA60188EC93E00E946D30B80160532F
:103D90007C4FA60180ED93E00E946D30A601440F98
:103DA000551FB801660F771F60527C4F80EE93E07D
:103DB0000E946D30B80168527C4FA60188ED93E0F7
:103DC0000E946D3088E08F198093C7031091C7035C
:103DD000DE01119640E0842F810FF41212C080930F
:103DE000C70328960FB6F894DEBF0FBECDBFDF9194
:103DF000CF911F910F91FF90DF90CF900895F12CFC
:103E0000AFCF5D91252F30E090E0BC0169537C4F2E
:103E1000F901EE0FFF1FEC5CFE4F0081FB010183F7
:103E2000220F331FF901EC5FFE4F21A9FB0121870F
:103E3000518B880F991FFC01E953FC4F128E118E94
:103E40004F5FC9CFB0E0A0E0E8E2FFE10C94CF2FD4
:103E5000F82E8091DB018F1124C090911D04937086
:103E60002091DC0130E081E09217130609F480E034
:103E700081708093DA01809122049091D901981782
:103E800039F08093D90140E060E080E00E94881E14
:103E90002AE22F1588F0EF2DF0E0E850FF4C0C944B
:103EA000C72F81E0E5CF8091DA01882359F040E007
:103EB00060E080E00E94881E80E004C088ED91E010
:103EC0000E94C21B9091D8019F5F9093D8018111ED
:103ED0000CC082E08093D7018091DA01811105C086
:103EE000F11003C083E08093D701CDB7DEB7E0E1E6
:103EF0000C94EB2F88ED91E00E94FC1BE3CF88ED42
:103F000091E00E94481CDECF88ED91E00E94931C56
:103F1000D9CF88ED91E00E94E81CD4CF88ED91E0E4
:103F20000E94AB19CFCF88ED91E00E94B019CACFA3
:103F300088ED91E00E944819C5CF88ED91E00E947C
:103F40004D19C0CF88ED91E00E94DD18BBCF88ED00
:103F500091E00E94E218B6CF88ED91E00E94B51979
:103F6000B1CF88ED91E00E94BA19ACCF88ED91E015
:103F70000E94BF19A7CF88ED91E00E94C419A2CF7B
:103F800088ED91E00E94E7189DCF88ED91E00E94B6
:103F9000521998CF88ED91E00E94571993CF88ED80
:103FA00091E00E94EC188ECF88ED91E00E942A1AD1
:103FB00089CF88ED91E00E942F1A84CF88ED91E09F
:103FC0000E94341A7FCF88ED91E00E947A1D7ACF4B
:103FD00088ED91E00E94E81D75CF88ED91E00E9488
:103FE000351E70CF88ED91E00E94C9196BCF88ED26
:103FF00091E00E94CE1966CF8091D8011BE0819F8D
:10400000100D112440912304509124046091250443
:10401000709126048091C2039091C303A091C403C0
:10402000B091C50384179507A607B70708F053C0DA
:104030000E94CA14082F0E94CA1493E3891BF0F748
:10404000890FC82FD0E0FE01E656FE4F8091D901BE
:104050009081892309F43FC020E040E060E001FD49
:1040600013C00E94CA14082F0E94CA148695782F84
:104070002FE7720F08F47FEF602F809120040E94D9
:104080002B18462F282F672FCE010E9469182091E8
:10409000210430E1230F08F42FEF60E1822F90E03C
:1040A0000E949014BC0184EF91E00E945E2F8091E9
:1040B000230490912404A0912504B0912604860F36
:1040C000971FA11DB11D8093C2039093C303A093BA
:1040D000C403B093C50381E0133308F4F3CEECCEF0
:1040E0004091BE035091BF036091C0037091C10322
:1040F0008091230490912404A0912504B09126047A
:1041000084179507A607B70708F4D6CE8091DA0181
:10411000811120C0C091D8018BE0C89FC02D11240F
:104120001BE01C0F012F143308F003E3CC2ED12C1D
:1041300033E0C39FE0011124CB5DDC4FC01608F4CF
:1041400041C0E5E2F3E08BEB93E0133308F053C09A
:1041500081E0B8CE40E060E080E00E94881E05E289
:1041600013E0D0E0C0E03FE7E32E0E94CA1481FFD5
:104170000BC0F80110821182128221960D5F1F4F31
:10418000C333D10591F7C6CF0E94CA14B82E0E943E
:10419000CA148695782F2E2D720F08F47FEFCE016A
:1041A000880F991F8C0F9D1FFC01EB5DFC4F6F0169
:1041B0006B2D809120040E948C14F6016083718322
:1041C0008283DBCFF601E656FE4F80819091D901C4
:1041D000892331F02A8148816981C6010E946918CA
:1041E0002396FFEFCF1ADF0AA9CF238134814581BF
:1041F0002193319341938E179F07B9F70E94CA14F8
:1042000081FF1FC01092BB031092BC031092BD032C
:104210000E947A1600912304109124042091250411
:1042200030912604DC01CB01800F911FA21FB31F28
:104230008093BE039093BF03A093C003B093C103C8
:104240003BCE0E94CA14C82F0E94CA148695782FAC
:104250002FE7720F08F47FEF6C2F809120040E94EB
:104260008C146093BB037093BC038093BD03D0CFC9
:104270008091DA01882329F040E060E080E00E942C
:10428000881E9091D8018BE0E82E989FE00C1124B5
:1042900040912304509124046091250470912604D8
:1042A0008091210390912203A0912303B0912403D4
:1042B00084179507A607B70708F070C060911E0421
:1042C00070911F04809120040E942B18762E672E77
:1042D000582E09E013E0C4E0D1E05E014E01680110
:1042E00085E0482EF60121916F01F40181914F0183
:1042F00090E0222309F458C0252D472D662D0E94F9
:104300006918F5018385252D472D662D90E00E94C3
:104310006918F6018081319780834A94F1E0AF1AE1
:10432000B1084110DFCF8D8190E0F8012581222373
:1043300009F445C0252D472D662D0E9469188E81F0
:10434000252D472D662D90E00E9469180E94CA1401
:10435000837091E009F090E0F80195830A5F1F4FA8
:104360002C96F1E0C433DF0709F0B7CF0E947A162C
:1043700000912304109124042091250430912604F7
:10438000DC01CB01800F911FA21FB31F809321037B
:1043900090932203A0932303B093240381E022E3AC
:1043A0002E1508F08FCD88CD20E040E060E00E941F
:1043B0006918F501838520E040E060E0A7CF20E0A8
:1043C00040E060E00E9469188E8120E040E060E0FB
:1043D000BACF88ED91E00E94AD1A74CD88ED91E0DE
:1043E0000E94B21A6FCD88ED91E00E945E1B6ACDEB
:1043F00088ED91E00E946B1B65CD88ED91E00E94F5
:10440000721B60CD88ED91E00E947F1B5BCD88ED33
:1044100091E00E94861B56CD88ED91E00E94931B8F
:1044200051CD88ED91E00E949A1B4CCD88ED91E032
:104430000E94A71B47CD88ED91E00E94AE1B42CDA4
:1044400088ED91E00E94BB1B3DCD81E008950E9464
:104450002522089581E008950E942A220895FC01F2
:1044600080819BE0899F802D1124682F843308F080
:1044700063E38B500E942C2208954F925F926F92BB
:104480007F928F929F92AF92BF92CF92DF92EF92E4
:10449000FF92CF936091F0037091F1038091F2034A
:1044A0009091F3030E9464286B017C010E944928CB
:1044B0004B015C018092F0039092F103A092F20311
:1044C000B092F303A091C703E7ECF3E08A2F90E0EA
:1044D0004FEF5FEF60E070E04C195D096E097F09F6
:1044E000A9132AC08093C7038091F403C0E081110F
:1044F00008C080911D04C82FC37019F0C82FC6953D
:10450000C6958091D701813009F440C0882339F1E4
:10451000823009F447C0833009F44FC0CF91FF9037
:10452000EF90DF90CF90BF90AF909F908F907F9053
:104530006F905F904F900895218D328D2901712CDD
:10454000612C441555056605770520F481509F5F61
:104550003296C6CF2C0D3D1D328F218FF8CF109291
:10456000D8018092230490922404A0922504B09252
:10457000260489E2E7ECF3E0A7E2B4E001900D92B3
:104580008A95E1F781E08093D701C8CF8C2F0E94F4
:10459000221FCC2319F20E94272288ED91E00E946D
:1045A0002F22BCCFC093DB0180911D0483708093C8
:1045B000DC010E94631883E0E6CF8091C60381117D
:1045C0000E94201860912304709124048091250496
:1045D000909126040E94642860317105810591053F
:1045E00008F49CCF1092D70199CFE0916D02F09121
:1045F0006E020995109227048FEF9FEF909341046C
:104600008093400490934304809342049093450424
:104610008093440490934704809346049093490404
:104620008093480490934B0480934A0490934D04E4
:1046300080934C0490934F0480934E041092C703D0
:104640009093E1038093E0039093E3038093E2036C
:104650009093E5038093E4039093E7038093E6034C
:104660009093E9038093E8039093EB038093EA032C
:104670009093ED038093EC039093EF038093EE030C
:104680000E947E0C811104C00E940D0D0E942E1804
:1046900081E08093C60346E050E06CE170E08DE17C
:1046A00094E00E9476301092C60380911D048C7FA6
:1046B00011F40E942E180895CF93C82F882391F0EB
:1046C0008091F40381110EC00E94221F1092DB0121
:1046D00080911D0483708093DC010E94631883E045
:1046E0008093D701C093F403CF910895EDE1F4E0F6
:1046F000908121E0922790831092D7010E944E175B
:10470000089581E00E947623089590911D0493708E
:1047100051F0811109C0946090931D041092D7014B
:10472000862F0E944E1708958B3210F0986AF4CFAE
:10473000282F220F220F922BEFCF61E00E948523BA
:104740000895682F90911D049695969581E0890FA4
:104750008B3208F081E00E948523089581E00E9459
:10476000A1230895682F90911D04969596958FEF3B
:10477000890F09F48AE20E948523089581E00E944E
:10478000B223089590911D04937061F080931E04EC
:1047900060931F04433808F042E840932004822FBE
:1047A0000E944E170895ADE1B4E01196EC91119777
:1047B000F0E0282F13964C91139712966C91CF012D
:1047C00008960E94C223089581E00E94D323089591
:1047D000EDE1F4E09181282F43816281E92FE850D7
:1047E000FF0BCF010E94C223089581E00E94E823BD
:1047F0000895EDE1F4E0628120E1620F08F46FEFCB
:104800009181282F4381892F90E00E94C22308952F
:1048100081E00E94F9230895EDE1F4E0628120E156
:10482000621B08F460E09181282F4381892F90E07A
:104830000E94C223089581E00E940C240895EDE1B6
:10484000F4E0438120E1420F08F44FEF9181282FDB
:104850006281892F90E00E94C223089581E00E9426
:104860001F240895EDE1F4E0438120E1421B08F4A8
:1048700040E09181282F6281892F90E00E94C2231D
:10488000089581E00E9432240895EDE1F4E024814E
:1048900030E1230F08F42FEF24830E944E17089570
:1048A00081E00E9445240895EDE1F4E0248130E1A7
:1048B000231B08F420E024830E944E17089581E012
:1048C0000E94542408950895FC01EE0FFF1FE80F85
:1048D000F91FE05BFB4F6183408322830895E0E58D
:1048E000F4E0818360834283339694E0E93EF907E4
:1048F000C1F7089563E370E080E594E00E94E4244A
:104900000895FA01811101C0FB01099508951F93D3
:10491000CF93DF93EC01FB011281111110C00E94B3
:10492000900B8272FE01E052F847E531F10508F084
:1049300049C0ED5DFE4C0C94C72F0E948123812F4E
:10494000DF91CF911F9108954EEB53E26EEA73E22F
:104950000E948124F4CF4EEA53E26EEB73E2F8CF6B
:1049600045EF53E264EE73E2F3CF44EE53E265EFBA
:1049700073E2EECF4BE154E268E074E2E9CF48E045
:1049800054E26BE174E2E4CF41E454E26EE274E29B
:10499000DFCF4EE254E261E474E2DACF4FE554E255
:1049A00060E574E2D5CF40E554E26FE574E2D0CF24
:1049B00081E00E949D23C3CF85E0FBCF8DE0F9CF3E
:1049C00082E1F7CF11E0BBCF6A9A4EB14B7F5EB167
:1049D0005460EFB7F8949B01220F331F260F371F47
:1049E000280F391F2817390741F4EFBF8FE594E0EE
:1049F0000197F1F700C000000895DC016D91CD0131
:104A000078E05EB9000000C067FF4EB9660F000095
:104A100000C000C000C04EB900C07A9591F7E2CF47
:104A2000CF93DF93EC01FB018281882309F4D2C08C
:104A30009E0130572332310508F0B2C00E94930C1A
:104A400090930C0480930B04FE01E150F047E23296
:104A5000F10520F4E85CFE4C0C94C72F80910B0408
:104A6000816080930B0493C080910C0488608093D4
:104A70000C048DC080910B048260F3CF80910B04F5
:104A80008460EFCF80910B048860EBCF80910C04A1
:104A90008160EDCF80910C048260E9CF80910B049E
:104AA0008061DFCF80910B048062DBCF80910B04AB
:104AB0008064D7CF0E94180780910B048068D1CF03
:104AC00080910B048C60CDCF80910C048360CFCF9C
:104AD00080910B048E7FC5CF80910C04877FC7CF58
:104AE00080910B048D7FBDCF80910B048B7FB9CF5C
:104AF00080910B04877FB5CF80910C048E7FB7CF58
:104B000080910C048D7FB3CF80910B048F7EA9CF51
:104B100080910B048F7DA5CF80910B048F7BA1CF5B
:104B20000E94180780910B048F779BCF80910B0414
:104B3000837F97CF80910C048C7F99CF80910B0459
:104B400082FB992790F921E0922790FB82F990FB54
:104B500083F987CF80910C04982F909591708E7F68
:104B6000892B90FB81F983CF90910B04892F8F7B48
:104B700096FF806476CF0E94180790910B04892FCE
:104B800097FB87F980586DCF81E00E94100D8091CE
:104B90000B0490910C040E94980C0E94180780E06E
:104BA000DF91CF91089580E0F0CF90910B04892F91
:104BB0008F7E94FF806155CF90910B04892F8E7F5B
:104BC00090FF81604ECF90910C04892F877F93FFD7
:104BD00088604DCF81E0E4CFCF93DF93EB01863146
:104BE0009C4711F50E94900B9A81992399F08A7A3B
:104BF00091E009F490E09093F503811109C089E2F6
:104C00000E94680B0E94D10B80E0DF91CF91089544
:104C100085E3F6CF8091F503811104C089E20E94FB
:104C2000700BF0CF85E3FBCF81E0EFCF0F931F93A5
:104C3000CF93DF93C42FD22FFC0182818823C9F048
:104C40004093F8030E943D289093F7038093F60366
:104C500080E28C0F883040F4C77081E001C0880F7B
:104C6000CA95EAF70E94BB04DF91CF911F910F9183
:104C700008951091F803141332C08091F6039091B7
:104C8000F7030E945528883C910548F5C0E2CD0FF6
:104C90001D17B9F080E2810F883040F4177081E071
:104CA00001C0880F1A95EAF70E94C204C83048F480
:104CB00081E09D2F977001C0880F9A95EAF70E94B6
:104CC000BB04802F0E94B204C83070F6D77081E018
:104CD00001C0880FDA95EAF70E94C204C5CF80E2CE
:104CE0008C0F883008F6C77081E001C0880FCA9524
:104CF000EAF7F2CF0F93DB0188519C47873091058B
:104D0000A0F5FC01E65AFE4C0C94C72F06E221EEFA
:104D100041EE6AE17CE7CD010E94162680E00F910A
:104D2000089507E225EE45EE6BE17CE7F4CF06E25D
:104D300021EE40EE68E17CE7EECF07E225EE44EE9F
:104D400069E17CE7E8CF06E221EE42EE6CE17CE728
:104D5000E2CF07E225EE46EE6DE17CE7DCCF08E22C
:104D600021E045EE6EE17CE7D6CF12968C91882348
:104D700019F01092F803D3CF81E0D1CF909377024E
:104D80008093760208959093FE038093FD03089527
:104D9000E091FD03F091FE03309729F00190F0813E
:104DA000E02D0995089580E00895E091FD03F091CC
:104DB000FE03309721F00280F381E02D09950895DC
:104DC000E091FD03F091FE03309739F022E0DC0121
:104DD0002C930480F581E02D09950895A3E0B0E0BF
:104DE000E4EFF6E20C94DD2F2091FB033091FC03FD
:104DF00028173907A1F09093FC038093FB03E091FF
:104E0000FD03F091FE03309751F023E029839B834B
:104E10008A830680F781E02DCE01019609952396BD
:104E2000E2E00C94F92FA3E0B0E0E9E1F7E20C94A2
:104E3000DD2F2091F9033091FA0328173907A1F0EB
:104E40009093FA038093F903E091FD03F091FE0340
:104E5000309751F024E029839B838A830680F78171
:104E6000E02DCE01019609952396E2E00C94F92FEE
:104E70009C012E5F3F4FAC01485F5F4F80E02417DD
:104E8000350709F40895F90191919F019923B9F328
:104E90008F5FF5CF662349F0FC0132960896219189
:104EA000261729F0E817F907D1F780E0089581E087
:104EB00008959C01FC0132969FEF80E041914617D6
:104EC00051F09F3F19F4411101C0982F8F5F863038
:104ED000A9F79F3F09F40895290F311D97FD3A95D1
:104EE000F90162830895FC013296089621912613F8
:104EF00003C0DF0111971C92E817F907B9F708956D
:104F00000E94592708950E9473270895029626E06B
:104F1000FC0111922A95E9F7089546E050E00E94BD
:104F2000603021E0892B09F420E0822F0895089554
:104F30000E9497270895811106C081E08093FF03A6
:104F40000E949827089582E0F9CF83E08093FF03C1
:104F50000E94982708950E949B27089581E08093DE
:104F6000FF030E94982708950E94AE270895089590
:104F700008950E94B8270895089508950E94B727BC
:104F80000895CF930E94BC270E94DF100E94BD2786
:104F9000C0E08C2F0E941410892B31F4CF5FC430F5
:104FA000C1F780E0CF91089581E0FCCF85B780689C
:104FB00085BF85B7806885BF08951F921FB61F9271
:104FC00011248F939F93AF93BF938091000481111D
:104FD00013C08091E9049091EA04A091EB04B09190
:104FE000EC044196A11DB11D8093E9049093EA045D
:104FF000A093EB04B093EC04BF91AF919F918F917C
:105000001F901FBE1F9018958091F104843031F1DC
:105010000E9481031092000488E190E020E40FB622
:10502000F894A895809360000FBE2093600083B72A
:10503000817F846083BF83B7816083BF78948895C4
:1050400083B78E7F83BF0FB6F894A89580916000D8
:10505000886180936000109260000FBE08950E94E6
:1050600018070E948B03089582E084BD93E095BDEC
:105070009AEF97BD80936E0008952FB7F8948091B2
:10508000E9049091EA04A091EB04B091EC042FBFE5
:1050900008952FB7F8946091E9047091EA04809123
:1050A000EB049091EC042FBF08959C014FB7F89446
:1050B0008091E9049091EA04A091EB04B091EC0492
:1050C0004FBF821B930B0895CF92DF92EF92FF9216
:1050D0002FB7F894C090E904D090EA04E090EB0474
:1050E000F090EC042FBFA7019601261B370B480B4D
:1050F000590BCA01B901FF90EF90DF90CF9008954E
:1051000078941F921FB61F9211248F939F93AF9391
:10511000BF938091E9049091EA04A091EB04B091CF
:10512000EC040196A11DB11D8093E9049093EA045B
:10513000A093EB04B093EC04BF91AF919F918F913A
:105140001F901FBE1F90189581E08093E00080E2C1
:105150008093D8001092C9008FE19EE40197F1F787
:1051600000C0000087E090EBDC018093FA0490938C
:10517000FB04A093FC04B093FD0488E19CE00FB60F
:10518000F894A895809360000FBE90936000FFCFC5
:1051900088E19CE00FB6F894A895809360000FBE5C
:1051A00090936000FFCF8091090408959B01BA019C
:1051B0009091F1049430E9F48F708093E9009FEFAF
:1051C0008091E800915085FD06C085ED8A95F1F744
:1051D00000009111F5CF8091E80085FF0AC050E0F2
:1051E00040E0C9010E94CB2A8091E8008E7780932D
:1051F000E800089543E050E0BC0182E00E94D62818
:10520000089546E050E0BC0182E00E94D62808954F
:10521000CF93DF93EC0148E050E0BC0181E00E94B5
:10522000D62888E0FE01A1E0B4E001900D928A95B5
:10523000E1F7DF91CF9108958091F004811109C0C9
:105240000E945B2C0E94B82C8091E20084608093C5
:10525000E20008951092F00408950E94AE27089588
:105260006091ED0481E0611101C080E00E94A527FA
:1052700008959091F10481E0943009F080E060910C
:10528000ED040E94AB27089542E061EC81E00E94AA
:10529000D72B42E261EC82E00E94D72B9091F1047F
:1052A00081E0943009F080E06091ED040E949B273A
:1052B00008958091F304833009F461C030F48130A3
:1052C000D1F1823009F49EC008958A3009F48AC071
:1052D0008B3009F46FC0893009F050C08091F2041E
:1052E000813209F04BC08091F6049091F704029747
:1052F00008F044C08091E800877F8093E8008091A7
:10530000E80082FF37C09091F3008091F20002978D
:1053100031F48091F100813011F0863021F48091D8
:10532000F100809309048091E8008B778093E80076
:105330000E940B2C23C08091F204813AF9F48091F1
:10534000E800877F8093E8008091F6049091F7044D
:10535000892B61F468E081E094E070E00E941A2BF0
:105360008091E8008B778093E800089560E090E0FA
:1053700080E0F3CF8091F1048111C1CF0895809135
:10538000F204813AD9F78091F6049091F704892BC1
:10539000A9F78091E800877F8093E8008091E8007A
:1053A00080FFFCCF8091E7018093F1008091E800BD
:1053B0008E77BCCF8091F204813201F78091F604A0
:1053C0009091F704892BD1F68091E800877F809334
:1053D000E8000E940B2C8091F4048093E7010E9466
:1053E000180708958091F204813241F68091E80017
:1053F000877F8093E8000E940B2C8091F5048093B6
:105400000A0408958091F204813A09F0B7CF80919F
:10541000E800877F8093E8008091E80080FFFCCF60
:1054200080910A04C1CF84B7877F84BF0FB6F894F8
:10543000A895809160008861809360001092600060
:105440000FBE80E890E00FB6F894809361009093CF
:1054500061000FBE0E94B42708950E945B2C0E9439
:10546000B82CE2EEF0E080818460808378940E9422
:10547000372F08958FED91E00E94C3260895809103
:10548000F104853031F48091F104853019F00E94E7
:105490002F2808950E9404288091EF04882399F30F
:1054A0000E94C127882379F30E94B52A0E94180719
:1054B000EACF08950E945D2A0895292F33272330CB
:1054C000310519F168F42130310509F444C0223066
:1054D000310509F445C090E080E030E020E025C0CF
:1054E0002132310549F122323105A9F780E490E0FB
:1054F0002CE734E061157105C1F08BE790E021E005
:1055000034E06130710589F0E6CF9927813091054B
:1055100081F0009729F00297F1F6ECE8F3E002C081
:10552000E0EBF3E0849190E09F01FA013183208366
:105530000895E4EAF3E0F6CF89E090E026EC33E06A
:105540006115710591F389E090E02FED33E0613052
:10555000710559F3C0CF82E190E02FEE33E0E5CF43
:105560008BE390E024EB33E0E0CF80E189BD82E182
:1055700089BD09B400FEFDCF8091D8008F7D809356
:10558000D8008091E00082608093E0008091E0008C
:1055900081FDFCCF0895AF92BF92CF92DF92FF9230
:1055A0000F931F93CF93DF936C01EB018A010E944D
:1055B0002A2CF82E811123C00115110539F0F801AC
:1055C00080819181C81BD90BC80ED91EB12CA12C8A
:1055D0002097A9F08091E80085FD22C08091E80025
:1055E0008E778093E80001151105A1F0F801808104
:1055F0009181A80EB91EB182A08285E0F82E8F2D70
:10560000DF91CF911F910F91FF90DF90CF90BF90CE
:10561000AF9008950E942A2C8823D1F2F82EEFCF64
:10562000F60181916F018093F1002197FFEFAF1A8E
:10563000BF0ACECFFC018091F8049091F90486173F
:105640009707A0F06115710529F49091E8009E7705
:105650009093E80090E06115710551F4911108C034
:105660008091E80082FF34C080E00895BC01F2CF51
:105670008091F1048823C1F18530C1F18091E80067
:1056800083FD30C08091E80082FDEACF8091E80080
:1056900080FFE1CF8091F3002091F200382F611557
:1056A000710519F02830310558F091E028303105A6
:1056B00009F090E02091E8002E772093E800CBCF0E
:1056C00081918093F100615071092F5F3F4FE7CFC7
:1056D0008091F104882341F0853041F08091E80009
:1056E00083FFBECF81E0089582E0089583E00895AE
:1056F000FC018091F8049091F90486179707A0F0B7
:105700006115710529F48091E8008E778093E80097
:1057100090E06115710551F4911108C08091E80085
:1057200082FF35C080E00895BC01F2CF8091F10482
:105730008823C9F18530C9F18091E80083FD31C02B
:105740008091E80082FDEACF8091E80080FFE1CF00
:105750008091F3002091F200382F6115710519F046
:105760002830310558F091E02830310509F090E0FB
:105770008091E8008E778093E800CBCF849180936E
:10578000F1003196615071092F5F3F4FE6CF809154
:10579000F104882341F0853041F08091E80083FFD7
:1057A000BDCF81E0089582E0089583E00895982FA9
:1057B000973028F08F708093E90081E008959093EE
:1057C000E900242F762F50E0981731F07091EC000B
:1057D0002091ED005091F00021FD02C09F5FE8CFC5
:1057E0003091EB003E7F3093EB003091ED003D7F38
:1057F0003093ED003091EB0031603093EB0070930B
:10580000EC002093ED005093F0002091EE0027FD76
:10581000E5CF80E008958091F20487FF13C0809166
:10582000E80082FF06C08091E8008B778093E80053
:1058300004C08091F1048111F2CF08958091F104A8
:105840008823D9F38091E80080FFF8CF8091E800A9
:105850008E77ECCF2091E4003091E50095E6A90128
:105860002091EC00822F817020FF06C08091E8001B
:1058700080FF06C080E008952091E80022FD1AC054
:105880008091F104882389F0853089F08091EB00C4
:1058900085FD0FC02091E4003091E50042175307C9
:1058A000F9F29150E1F684E0089582E0089583E0F2
:1058B000089581E008950E94CA2C0E94D22CE0EE47
:1058C000F0E0808181608083E8EDF0E080818F7777
:1058D000808319BCA7EDB0E08C918E7F8C93808182
:1058E0008F7E80831092F00408950F931F93CF93BF
:1058F000DF930E94CA2C0E94D22CC8EDD0E0888190
:105900008F77888388818068888388818F7D88836A
:1059100019BC1092F1041092ED041092EF04109251
:10592000EE0400EE10E0F80180818B7F8083888197
:105930008160888342E060E080E00E94D72BE1EE46
:10594000F0E080818E7F8083E2EEF0E080818160F4
:105950008083808188608083F80180818E7F80834E
:10596000888180618883DF91CF911F910F91089585
:10597000E8EDF0E080818F7E8083E7EDF0E08081CC
:105980008160808384E082BF81E08093F0040E9484
:10599000752C0895E8EDF0E080818E7F8083109271
:1059A000E20008951092DA001092E10008951F922B
:1059B0000F920FB60F9211242F933F934F935F9343
:1059C0006F937F938F939F93AF93BF93EF93FF93C7
:1059D0008091E10082FF0BC08091E20082FF07C04E
:1059E0008091E1008B7F8093E1000E94362F8091AF
:1059F000DA0080FF19C08091D80080FF15C0809127
:105A0000DA008E7F8093DA008091D90080FF96C003
:105A100080E189BD82E189BD09B400FEFDCF81E04E
:105A20008093F1040E941C298091E10080FF19C03D
:105A30008091E20080FF15C08091E2008E7F80930C
:105A4000E2008091E20080618093E2008091D800C2
:105A500080628093D80019BC85E08093F1040E9495
:105A600030298091E10084FF2BC08091E20084FF07
:105A700027C080E189BD82E189BD89B5982F9170E9
:105A800080FFFBCF8091D8008F7D8093D8008091DC
:105A9000E1008F7E8093E1008091E2008F7E809311
:105AA000E2008091E20081608093E2008091ED0449
:105AB000882309F449C084E08093F1040E943929C5
:105AC0008091E10083FF29C08091E20083FF25C01F
:105AD0008091E100877F8093E10082E08093F10470
