:100000000C94A8060C94E0060C94E0060C94E00610
:100010000C94E0060C94E0060C94E0060C94E006C8
:100020000C94E0060C94E0060C94782A0C944C2B6B
:100030000C9494250C94E0060C94E0060C94E006D5
:100040000C94E0060C94E0060C94E0060C94E00698
:100050000C94E0060C941B260C94E0060C94E0062D
:100060000C94E0060C94E0060C94E0060C94E00678
:100070000C94E0060C94E0060C94E0060C94E00668
:100080000C94E0060C94E0060C94E0060C94E00658
:100090000C94E0060C94E0060C94E0060C94E00648
:1000A0000C94E0060C94E0060C94E00601001E009F
:1000B0001F0020002100220000000000000023009B
:1000C00024002500260027000100294614001A00FC
:1000D00008001500170000002B4F00001C0018003E
:1000E0000C001200130028002A3404001600070038
:1000F00009000A000000000000000B000D000E00C7
:100100000F0033002A3431221D001B0006001900A5
:1001100005000000520000001100100036003700FA
:10012000380038322152E200E000E30022522C0075
:10013000500051004F002C002352E300E400E20085
:100140002452010000000000000000000000000038
:10015000000000000000000000000000000000009F
:10016000000000000000520000000000000000003D
:10017000000000000000520000000000000000002D
:100180000000500051004F0000000000000000007F
:100190000000500051004F0000000000000000006F
:1001A000000000000000000000000000000000004F
:1001B000000000000000000000000100000000003E
:1001C000000001000000000000000000000001002D
:1001D000000000000000010000000000000000001E
:1001E000000000000000000000000000000000000F
:1001F00000000000000035003A003B003C003D00DC
:100200003E0000000000000023002400250026001E
:1002100027000000000000000000000000000000B7
:1002200000000000000000002D002E00310034000E
:100230004C002F02000000000000000044000000FD
:10024000000000000000000000000000000030007E
:10025000000000000000000001000000000000009D
:100260000000000027520000000000000000000015
:10027000000000000000000000000000000000007E
:100280000000000000000000000000002B001E0025
:100290001F002000210022000000000000003F009D
:1002A000400041004200430035024C003400310060
:1002B0002E002D0000000000000000000000510092
:1002C00000000000000000002F00000000000000FF
:1002D00000000000000000000000450000000000D9
:1002E0000000000030020000000000000000275263
:1002F00000000000000000000000010000000000FD
:1003000000000100000000000000000000000000EC
:1003100000000000000000000000000000000000DD
:10032000000000000000000052000000000000007B
:1003300000000000000000000000000000000000BD
:1003400000000000500051004F00000000000000BD
:10035000000000000000000000000000000000009D
:100360000000000000002600E100E700210000007E
:10037000000000000000000000000000000000007D
:10038000000000000000000000000000000000006D
:10039000000000000000000001000000000000005C
:1003A000000000000000000000000000000000004D
:1003B000000000000000000000000000000000003D
:1003C0000000000000000000007C007C0000000035
:1003D000000000000000000000000000000000001D
:1003E000000000000000000000000000000000000D
:1003F00000000000000000000000000000000000FD
:1004000000000000000000000000000000000000EC
:1004100000000000000000000000000000000000DC
:1004200001000000000001000000000000000000CA
:1004300000000000000000000000000000000000BC
:1004400000000000000000000000000000000000AC
:10045000000000000000000000000000000000009C
:10046000000000000000000000000000000000008C
:10047000000000000000000000000000000000007C
:10048000000000000000000000000000000000006C
:10049000000000000000000000000000000000005C
:1004A000000000000000000000000000000000004C
:1004B000000000000000000000000000000000003C
:1004C00000000000007C00000000000000000000B0
:1004D000000000000000000000000000000000001C
:1004E00000000000007C00000078027806780478A4
:1004F00000000000000029782778257823782178EB
:1005000000000000000001782078057803780000E2
:10051000000000002A7828782678247822780000C5
:100520000000000031783078337832780000000025
:1005300000002B782C782D782E782F780000000082
:1005400000000000000001000000000000000000AA
:100550000000010000000000000000000100010098
:100560000100010001000100010001000100010083
:100570000100010001000100010001000100010073
:100580000100010001000100010001000100010063
:100590000100010001000100010001000100010053
:1005A0000100010001000100010001000100010043
:1005B0000100010001000100010001000100010033
:1005C0000100010001000100010001000100010023
:1005D0000100010001000100010001000100010013
:1005E0000100010001000100010001000100010003
:1005F000010000001E001F0020002100220000005A
:100600000000000023002400250026002700010030
:10061000294514001A0009001300050000002B4FA3
:1006200000000D000F0018001C00330001002A34E8
:1006300004001500160017000A000000000000006A
:100640001000110008000C0012002A342F221D0097
:100650001B000600070019000000520000000E00F9
:100660000B0036003700380030220152E200E00073
:10067000E30002522C00500051004F002C000352A6
:10068000E300E400E200045201000000000000006A
:10069000000000000000000000000000000000005A
:1006A000000000000000000000000000000000004A
:1006B000000000000000000000000000000000003A
:1006C000000000000000000000000000000000002A
:1006D000000000000000000000000000000000001A
:1006E000000000000000000000000000000000000A
:1006F00000000000000000000000000000000000FA
:1007000001000000000000000000000000000000E8
:1007100000000000000000000000000000000000D9
:1007200000000000000000000000000000000000C9
:1007300000000000000000000000000000000000B9
:1007400000000000000000000000000000000000A9
:100750000000000000000000000000000000000099
:100760000000000000000000000000000000000089
:100770000000000000000000000000000000000079
:100780000000000000000000000000000000000069
:100790000000000000000100000000000000000058
:1007A0000000000000000000000000000000000049
:1007B0000000000000000000000000000000000039
:1007C0000000000000000000000000000000000029
:1007D0000000000000000000000000000000000019
:1007E0000000000000000000000000000000000009
:1007F00000000000000000000000000000000000F9
:1008000000000000000000000000000000000000E8
:1008100000000000000000000000000000000000D8
:1008200000000000000000000000000000000000C8
:1008300000000000010000000000000000000000B7
:1008400000000000000000000000000000000000A8
:100850000000000000000000000000000000000098
:100860000000000000000000000000000000000088
:100870000000000000000000000000000000000078
:100880000000000000000000000000000000000068
:100890000000000000000000000000000000000058
:1008A0000000000000000000000000000000000048
:1008B0000000000000000000000000000000000038
:1008C0000000000000000000000000000000000028
:1008D0000000000000000100000000000000000017
:1008E0000000000000000000000000000000000008
:1008F00000000000000000000000000000000000F8
:1009000000000000000000000000000000000000E7
:1009100000000000000000000000000000000000D7
:1009200000000000000000000000000000000000C7
:1009300000000000000000000000000000000000B7
:1009400000000000000000000000000000000000A7
:100950000000000000000000000000000000000097
:100960000000000000000000000000000000000087
:100970000000000001006A520000000000000000BA
:10098000000036022F0237020000000000000000C5
:10099000000069520000000000000000000000009C
:1009A0002F000000300000000000000000000000E8
:1009B0004952000000000000000000000000260274
:1009C00030022702000000000000000000000000CC
:1009D0000000000000000000000000000000405285
:1009E00000000000000000000000000000006B524A
:1009F0000000000000006C52000000006052000087
:100A000000006D520000000000006E521E0F050035
:100A1000047F3F1F643214643214783C1E1E140A93
:100A2000052223252628292A2C2D2F30323335362E
:100A3000383A3B3D3E4042434547494A4C4E50516F
:100A4000535557595A5C5E6062646668696B6D6F96
:100A500071737577797B7D7F81838587898A8C8E99
:100A600090929496989A9C9E9FA1A3A5A7A8AAACA1
:100A7000AEAFB1B3B4B6B8B9BBBCBEBFC1C2C3C5DB
:100A8000C6C7C9CACBCCCDCED0D1D2D2D3D4D5D67D
:100A9000D7D7D8D9D9DADADBDBDBDCDCDCDCDCDDB0
:100AA000DDDDDDDCDCDCDCDCDBDBDBDADAD9D9D894
:100AB000D7D7D6D5D4D3D2D2D1D0CECDCCCBCAC92C
:100AC000C7C6C5C3C2C1BFBEBCBBB9B8B6B4B3B15B
:100AD000AFAEACAAA8A7A5A3A19F9E9C9A989694F6
:100AE00092908E8C8A89878583817F7D7B797775CB
:100AF00073716F6D6B6968666462605E5C5A5957AA
:100B0000555351504E4C4A4947454342403E3D3B68
:100B10003A3836353332302F2D2C2A2928262523F2
:100B200022FFAA7F554000010101010101010101DD
:100B3000020202020202020202030303030303038E
:100B4000030404040404040405050505050606065B
:100B50000606070707070708080808090909090A18
:100B60000A0A0B0B0B0C0C0C0D0D0D0E0E0E0F0FBD
:100B70000F1010111111121213131414151516164B
:100B80001717181819191A1A1B1B1C1D1D1E1E1FBA
:100B90002020212222232424252626272829292A09
:100BA0002B2C2D2D2E2F3031323233343536373831
:100BB000393A3B3C3D3E3F4041424344454647482D
:100BC000494A4C4D4E4F50515354555658595A5B03
:100BD0005D5E5F616264656668696B6C6D6F7072A3
:100BE000737577787A7B7D7E8082838587888A8C0F
:100BF0008E8F91939596989A9C9EA0A2A3A5A7A943
:100C0000ABADAFB1B3B5B7BABCBEC0C2C4C6C9CB39
:100C1000CDCFD1D4D6D8DBDDDFE2E4E7E9EBEEF0EF
:100C2000F3F5F8FAFDFF0A035800440037003500D9
:100C300000000C0378006900750064006900000082
:100C40000403090409023B00020100A0FA090400A0
:100C500000010301010009211101000122440007E4
:100C600005810308000109040100010300000009D7
:100C70002111010001227B000705820320000112DF
:100C800001000200000008447875750100010200AF
:100C90000105010902A10185020901A10005091947
:100CA0000129081500250195087501810205010932
:100CB0003009311581257F9502750881060938159F
:100CC00081257F950175088106050C0A380215817A
:100CD000257F950175088106C0C005010980A10125
:100CE000850319012AB700150126B7009501751073
:100CF0008100C0050C0901A101850419012AA00287
:100D0000150126A002950175108100C00501090694
:100D1000A101050719E029E71500250195087501CE
:100D200081029501750881010507190029FF150049
:100D300026FF00950675088100050819012905158B
:100D4000002501950575019102950175039101C07A
:100D500011241FBECFEFDAE0DEBFCDBF04B603FE25
:100D600018C08091140390911503A0911603B091BF
:100D700017038730904BA740B04B59F410921403DF
:100D8000109215031092160310921703E0E0F8E397
:100D9000099511E0A0E0B1E0EEE8FEE502C00590A3
:100DA0000D92A03EB107D9F723E0A0EEB1E001C05B
:100DB0001D92A431B207E1F70E9488160C94F12E1F
:100DC0000C9400002A9A0895229A0E94E20608953F
:100DD0008F9A0895879A0E94E80608958C9808953E
:100DE000849A0E94EE0608950E94E4060E94EA0694
:100DF0000E94F0060E942F1508958031B8F46530E6
:100E0000A8F44F3098F450E09FE0699F400D511DC9
:100E10001124FA019BE4899FE00DF11D1124EE0FCE
:100E2000FF1FE455FF4F85919491089581E090E074
:100E300008950E94FD06089581E008950E941C0710
:100E4000089581E008950E941C0708950E942307D9
:100E5000089508950E9429070895A6E0B0E0E3E30D
:100E6000F7E00C949D2D49835A839E833091E701CE
:100E700089819A8131111AC03E81332399F022234E
:100E800089F00E94420D182F682F89819A810E9453
:100E90001E0D69817A81812F0E942B142696E3E032
:100EA0000C94B92D0E94300D182FF3CF0E94420DE3
:100EB00069817A81F1CFFC01262F408151816281C5
:100EC0007381848195810E942D070895CF93DF93CC
:100ED000EC0161E00E945B07BE010E941E07DF91EA
:100EE000CF910895CF93DF93EC0160E00E945B0700
:100EF000BE010E942A07DF91CF91089581E00895F5
:100F00000E947E070895CF93C82F0E94F30B8C2F69
:100F10000E9480072FEF84E39CE0215080409040A6
:100F2000E1F700C00000CF91089581E00E9483079F
:100F30000E943F26089580E00E9483070E94632656
:100F400008950F931F93CF93DF938C0161E00E946C
:100F50005B07EC01F801858181110E94D01DB80169
:100F6000CE010E942607811106C080E0DF91CF915B
:100F70001F910F910895B801CE010E94FA23882392
:100F8000A1F3B801CE010E942420882371F3B80197
:100F9000CE010E94FA1F882341F3B801CE010E94BE
:100FA000EF1D882311F3F8018581882361F0C33098
:100FB000FCE7DF07E9F058F4C115ECE7DE07A9F01C
:100FC000C130DC47B9F0C8010E942107CFCFCB3533
:100FD0008CE7D807A9F0CC35ECE7DE0771F0CA350D
:100FE000DC4789F70E945911EECF0E949507BDCFCB
:100FF0000E9461110E949B07B8CF0E944F11E3CF5E
:101000000E945D11E0CF0E9470250E942A08089579
:101010000E942E080E9475250895089581E0089584
:101020000895CF93DF93D82F0E940E08C82F8823EE
:1010300019F08D2F0E9410088C2FDF91CF91089509
:101040000895CF93C82F0E940D088C2F0E9411087D
:10105000CF91089580E00E94210808950E944324C2
:101060000E9421080895CF930E944324C82F8091A5
:10107000E2018C1779F0C093E2010E940026609390
:10108000E3017093E4018093E5019093E6018C2FD6
:101090000E942108CF910895ADE0B0E0E2E5F8E0CC
:1010A0000C949E2D488759876A877B878C879D87FC
:1010B00091110E948F101F8286E0FE013896DE019A
:1010C000119601900D928A95E1F78D8181110DC0E5
:1010D00029813A814B815C816D817E818F810E9463
:1010E000D90F2D96E2E00C94BA2DCE0101960E9404
:1010F00066078111EDCFF5CFFC012481213021F469
:10110000808191810E94740D0895662329F00E94C8
:1011100085210E946A2208950E94F121FACFCF937F
:10112000C82F8823C9F08238C9F40E94502481FD59
:1011300013C089E30E9406250E94FE102FEF87EE60
:1011400093E0215080409040E1F700C0000089E327
:101150000E940E250E94FE10CF9108958338A1F4BD
:101160000E94502480FDF8CF83E50E9406250E944E
:10117000FE102FEF81EE94E0215080409040E1F787
:1011800000C0000083E5E4CF8438A1F40E9450241D
:1011900082FDE2CF87E40E9406250E94FE102FEF19
:1011A00081EE94E0215080409040E1F700C00000C3
:1011B00087E4CECF8CEF8C0F813A98F48C2F0E946D
:1011C0003F1F8111C9CF8C2F0E94CB24882329F087
:1011D0008C2F0E940E250E94FE108C2F0E94062547
:1011E000B9CF80E28C0F883048F4C77081E001C02D
:1011F000880FCA95EAF70E947210ACCFEBE5EC0FAE
:10120000E33040F4F0E0EE59FE4F808190E00E9420
:101210006C24A2CFE8E5EC0FEB3150F4F0E0EE0FD8
:10122000FF1FE45DFE4F808191810E94912494CF45
:1012300083E38C0F833108F08FCF61E08C2F0E9405
:1012400085088ACF882309F456C0823879F40E9431
:10125000502481FF50C089E30E9406250E94FE10A1
:1012600089E30E940E250E94FE100895833859F4E8
:101270000E94502480FF3FC083E50E9406250E9403
:10128000FE1083E5EECF843859F40E94502482FF8B
:1012900032C087E40E9406250E94FE1087E4E1CF59
:1012A0009CEF980F913AE8F290E2980F983050F442
:1012B000877091E001C0990F8A95EAF7892F0E9403
:1012C0007810D1CF9BE5980F933028F490E080E020
:1012D0000E946C24089598E5980F9B3128F490E0C3
:1012E00080E00E949124089593E3980F933118F4BD
:1012F00060E00E94850808951F93CF93DF93182F15
:10130000EB010E948F08209739F4812F0E94220957
:10131000DF91CF911F9108958FE99FE00197F1F739
:1013200000C000002197EFCF70E060E0893311F436
:1013300060E570E00E947C090895882321F00E94F6
:1013400072100E94FE100895882321F00E947810E8
:101350000E94FE100895B0E0A0E0E1EBF9E00C94EB
:10136000972D6C01D62FC72FFC01158106810295A0
:101370000F700E946810E82E8823F9F0E12E1123E7
:10138000E1F08C2F807F803461F080E28D0F883017
:1013900008F18C2F807E803221F4D230D8F00023E7
:1013A000C9F08091D40282FF15C082E00E9423110F
:1013B0000E94681091E0E82EE926BC2EB2949FE0CE
:1013C000B922FBE0FB15B8F1EB2DF0E0ED50F14D4B
:1013D0000C94572DE12CF1CF0C2F0F70C07F11F022
:1013E0000295007F112399F0002359F080E28D0FC0
:1013F000883010F0D11107C0802F0E9472100E9417
:10140000FE108D2F5AC0802F0E948210F8CF8D2F92
:101410000E942209002379F080E28D0F883010F0BD
:10142000D11104C0802F0E94781003C0802F0E9429
:1014300088100E94FE10EB2DE850FF0B349720F42B
:101440000E9443240E942108EE2089F00E9464102B
:1014500080FD0DC0F60115820E945E100E947C0C7A
:10146000C6010E94BA0B0E945E100E948C0CCDB780
:10147000DEB7E9E00C94B32D2C2F2F70F22EC07F35
:10148000C03219F0F29480EFF822DD2341F0D13020
:10149000D1F1112309F444C00023F1F0B2CF8091BF
:1014A000D40282FD15C0112359F0FF2029F08F2DA1
:1014B0000E9472100E94FE1080E00E948F08BBCF35
:1014C00080E00E942209FF2009F4B5CF8F2DABCF19
:1014D000112369F0011104C08F2D0E949D09ABCF2B
:1014E000013009F0A8CF8F2D0E94A610A4CF0111C2
:1014F000A2CF8F2D0E94A4098F2D0E94B2108F2D94
:101500000E94961098CF112321F0063008F093CF57
:10151000E3CF053008F08FCF8F2D0E94A4098BCF29
:101520000023D1F3D93349F43FEF87EE93E03150F4
:1015300080409040E1F700C000008D2F0E942209FA
:101540007ACF8C2F86958695837069F0813009F06B
:1015500072CF8D2F9C2F9370111102C080E090E00C
:101560000E94912468CF8D2F9C2F9370111102C07F
:1015700080E090E00E946C245ECF612F8D2F0E944E
:10158000850859CF8C2F8370A1F5111154CF4D2FA1
:10159000429546954770440F440F2D2F2F7030E031
:1015A000042E02C0220F331F0A94E2F790E080E07D
:1015B000D4FF09C08FE090E002C0880F991F4A95C0
:1015C000E2F780959095C695C695C370822B932BB4
:1015D000C23049F058F4C13019F00E944C0C2BCFA6
:1015E0000E94430C28CF0E94550C25CF0E94400C2E
:1015F00022CF8695112311F08C2F8170882309F456
:101600001ACF4D2F429546954770440F440F2D2F0A
:101610002F7030E0042E02C0220F331F0A94E2F72D
:1016200090E080E0D4FF09C08FE090E002C0880F16
:10163000991F4A95E2F780959095C695C695C37017
:10164000822B932BC23049F058F4C13019F00E941C
:10165000B70CF1CE0E94AE0CEECE0E94C00CEBCEC9
:101660000E94640CE8CECF70112329F08C2F0E94C9
:101670007C0C8D2F32CF8D2F0E94A4098C2F0E94BD
:101680008C0CD9CED23F41F160F4D03FB9F0D13FBC
:1016900081F0112309F446C00111B3CE8C2F8F7154
:1016A0001FC0D33F01F1D43FA1F78091D40282FD46
:1016B00024C08C2F8F71112311F312C0112341F01C
:1016C000053008F0B8CE8C2F8F710E949E0CB3CEDF
:1016D000063008F0B0CEF7CF8C2F8F711111CFCF1D
:1016E0000E947C0CA8CE112329F08C2F8F710E94B0
:1016F000700CA1CE0E946B0C9ECE112349F0CF71CD
:101700008C2F0E947C0C63E08C2F0E94051193CEDD
:1017100081E00E942311023008F48DCE82E00E9405
:10172000231189CE002359F0D93309F006CFEFEF0A
:10173000F7EE23E0E150F0402040E1F7FCCE8C2FA3
:101740008F719DCF0F931F93CF93DF93EC0168812F
:1017500079818D810E947F0D8C010E94C90C0E94AD
:101760003F0CB801CE010E94AB09DF91CF911F91D0
:101770000F910895CF93DF93EC018C81882399F02A
:10178000CE010E94A107811111C00E946810882318
:1017900051F08D81882339F08091D40282FF03C0FB
:1017A00082E00E942311DF91CF910895CE010E9423
:1017B000A20BCE010E947207F6CF90E080E00E945B
:1017C0006C2490E080E00E9491240E948F100E947F
:1017D000FE100E9486220E946A2208950E94162509
:1017E0000E94DD0B08950E947F100E94EE0B089569
:1017F00092959F70963091F058F4925F9F7092305E
:1018000058F4803F19F030F4883E30F481E00895B8
:101810009A5FF4CF843FD1F380E00895883EB0F31F
:10182000813FD1F7F3CFFC012481222339F080815D
:1018300091810E94740D0E94F80B089580E0089534
:10184000A6E0B0E0E6E2FCE00C949E2D2696E2E0F5
:101850000C94BA2DA7E0B0E0E0E3FCE00C949E2DE0
:101860002796E2E00C94BA2D08950E94340C089556
:101870000E94350C909313028093120208950895EC
:101880000E94380C08952091120230911302822B8D
:10189000932B0E94380C089520911202309113026C
:1018A000822393230E94380C0895209112023091D4
:1018B0001302822793270E94380C08950E94340C4B
:1018C00008950E945E0C08950E94610C909311028D
:1018D00080931002089590E080E00E94640C0895C7
:1018E00021E030E0A90102C0440F551F8A95E2F7BC
:1018F000CA010E94640C089521E030E002C0220F6A
:10190000331F8A95E2F78091100290911102822B89
:10191000932B0E94640C089521E030E002C0220F56
:10192000331F8A95E2F720953095809110029091AF
:101930001102822393230E94640C089521E030E079
:1019400002C0220F331F8A95E2F780911002909116
:101950001102822793270E94640C0895209110029F
:1019600030911102822B932B0E94640C08952091D8
:10197000100230911102822393230E94640C089577
:101980002091100230911102822793270E94640C4B
:1019900008950895262F277091E001C0990F2A9588
:1019A000EAF723E0769567952A95E1F7660F771FAA
:1019B000660F771FFA01E60FF71F50E040E0682F2F
:1019C00070E08191DF0111979B01042E02C03695D2
:1019D00027950A94E2F721702195282729232827A3
:1019E0002C934F5F5F4F4430510559F70895A82F4E
:1019F000A77023E0969587952A95E1F7880F991FA0
:101A0000880F991FFB01E80FF91F50E040E080E0CC
:101A1000219130E00A2E02C0369527950A94E2F70C
:101A200021703327042E01C0220F0A94EAF7822B7B
:101A30004F5F5F4F4430510559F70895262F953079
:101A400070F48F3060F4682F70E08FE0989F600D25
:101A5000711D112448EE51E0822F0E94CA0C089596
:101A6000292F953068F48F3058F490E068EE71E0DB
:101A70003FE0239F800D911D11240E94F70C0895D3
:101A800080E00895B0E0A0E0E8E4FDE00C94972D3C
:101A90007C0100911002109111028091120290912C
:101AA0001302082B192BCFE0D0E0CC24C394D12C07
:101AB000BC2EC6010C2E02C0880F991F0A94E2F7B3
:101AC00080239123892B49F4219790F7B12C8B2DFA
:101AD000CDB7DEB7E9E00C94B32DB7018C2F0E948F
:101AE0003714019789F3F3CFCF93DF93EC010E9472
:101AF000420DBE010E943714DF91CF9108951F93CC
:101B0000CF93DF93EB019091E701992339F0CB015B
:101B10000E94740DDF91CF911F910895882369F081
:101B2000CB010E94420D182F682FCE010E941E0D7E
:101B3000BE01812F0E943714EDCFCB010E94300DE2
:101B4000182FF6CF1F93CF93DF93C091140217E0A5
:101B5000809115028C1304C0DF91CF911F910895DD
:101B6000D0E01C9FF0011D9FF00D1124EA5EFD4F97
:101B700020813181428153816481758186810E94F7
:101B80002A0C2196C770E4CF20914E0230914F026B
:101B90004091500250915102609152027091530253
:101BA000809154020E942A0C0895CF93DF93809174
:101BB0005402807F09F04DC080915302882309F4BC
:101BC00048C0E091140250911502C0914F02D0918B
:101BD0004E02609150027091510247E05E17C9F1C8
:101BE0008E2F90E0E49FF0011124EA5EFD4F2481E6
:101BF000222391F1489FF001499FF00D1124DF014C
:101C0000AA5EBD4F11962C9111972C1325C02C91D3
:101C10002D1322C015962C91159721111DC01296D7
:101C20002D913C91261B370B283C3105A8F480915F
:101C300054028F70806180935402E45EFD4F808176
:101C40008F70806180838EE492E00E94BA0B0E94C4
:101C5000A20DDF91CF910895FC013196E770BECFC0
:101C6000482F209114029091150257E0291302C0C9
:101C700080E0089530E0529FF001539FF00D112451
:101C8000EA5EFD4F8181681306C08081481303C05E
:101C900085818111EECF2F5F3F4F2770E7CFA4E101
:101CA000B0E0E5E5FEE00C94942D8C0186E0F801AF
:101CB000DE011F9601900D928A95E1F7F80184816B
:101CC000E5809EE4A92E92E0B92E909152029111E6
:101CD0001FC08823D1F0EE20A9F0C8010E94130C88
:101CE000F82E882379F087E0F801D50101900D9254
:101CF0008A95E1F7C5010E947C080E94D50D0E94DB
:101D0000C40D5FC0C8010E94BA0BFF24F39459C0F0
:101D1000C080D18082809380F09053022091500245
:101D200030915102A401421B530BFF2009F4F9C06A
:101D3000483C510508F0A7C0882309F442C090919F
:101D40004F0280915402282F207F09F05CC09D1122
:101D500016C090914E02C91212C0E1104EC08F7091
:101D60008061809354020E94C40D8EE492E00E9430
:101D7000BA0B80915402F8018683F12C22C0E11045
:101D80003CC06D2D8C2D0E94300E6D2D8C2D0E942F
:101D9000300EE82E8111F1CFCF86D88A8F859889B1
:101DA0000E94740D292F22952F70243078F49F7093
:101DB0002230A8F09923B9F0F8019681907F99F428
:101DC000FE2C8F2D6496ECE00C94B02D2A5F2F70C2
:101DD000223068F0C8010E94BA0BEF2CF1CF992392
:101DE00011F0882369F3805E883050F3F3CF803F91
:101DF00038F3815F833070F7E3CF809154028160C4
:101E000080935402BACF9D1113C090914E02C91213
:101E10000FC0E1100DC08683C8010E94BA0B87E095
:101E2000F801AEE4B2E001900D928A95E1F767CF38
:101E3000C8010E94130C882309F464CFEE2009F432
:101E400061CF80915402803288F020914E0230910F
:101E50004F02398728879B868A86909152029C87F9
:101E60001D868E87CE0108960E94BA0B87E0F80186
:101E7000AEE4B2E001900D928A95E1F70E94D50D93
:101E80000E94C40D42CF90915402292F207FA1F4CB
:101E9000682D9A8A898AA6017A899E2D0E94200C33
:101EA0008EE492E00E94BA0B87E0F50111928A95C8
:101EB000E9F70E94C40D61CF882309F482CF809195
:101EC0004F028D1110C080914E02C8120CC0E1105B
:101ED0000AC09683C8010E94BA0B87E0F5011192EF
:101EE0008A95E9F76ECFC8010E94130C882309F484
:101EF00009CFEE2009F406CF80915402803208F415
:101F0000B5CF20914E0230914F023A8329839C82B3
:101F10008B82909152029D831E828F83CE01019607
:101F2000A3CF483C5105B8F5882309F4EECEFE2C2A
:101F3000EE2009F4E7CE80914F028D111EC08091F2
:101F40004E02C8121AC08091540280FD0DC0982F15
:101F5000907F51F08683903F09F45ECF982F907F59
:101F6000905F8F70892B57CF87E0F801AEE4B2E025
:101F700001900D928A95E1F724CFC8010E94130CBD
:101F8000811174CF80915402816080935402C80102
:101F90000E94BA0B16CF682D9A8A898AA6017A897F
:101FA0009E2D0E94200C87E0F50111928A95E9F799
:101FB000A6CEAEE0B0E0EFEDFFE00C949D2D2887BB
:101FC00039874A875B876C877D878E87CE01089625
:101FD0000E944F0E8823B1F06C85662341F028855E
:101FE00039854A855B857D858E850E942A0C17E0A0
:101FF000809114029091150289133DC02E96E3E062
:102000000C94B92D87E0FE013896DE0111960190FF
:102010000D928A95E1F78C85882349F3209115026A
:1020200030E0C90101968770992740911402481742
:10203000190699F097E0929FD001939FB00D11245B
:10204000AA5EBD4FFE01319601900D929A95E1F77F
:10205000809315020E94A20DCACF0E94F30B10922A
:1020600015021092140287E0EEE4F2E0DF011D9207
:102070008A95E9F7BCCF819FC00111248A5E9D4FEC
:102080000E944F0E882309F4B9CFE09114021E9FDD
:10209000F0011124EA5EFD4F20813181428153819C
:1020A0006481758186810E942A0C8091140290E0DF
:1020B000019687709927809314029ACF80915D02D0
:1020C000869586958695089580915D02877008951E
:1020D00090915D02977081E009F480E0089580910D
:1020E0006902089590916902892B8093690208958D
:1020F00080959091690298239093690208951092B7
:102100006902089590916802892B8093680208956E
:102110008095909168029823909368020895109298
:102120006802089508950E949210089590915E02A9
:10213000292F282331F08095892380935E020E9405
:102140009310089508950E94A210089590915F023F
:10215000292F2823281729F0982B90935F020E949B
:10216000A310089590915F02292F282331F08095C4
:10217000892380935F020E94A310089580915F02DB
:10218000882329F010925F0280E00E94A310089536
:102190000F931F93CF93DF930091040110910501DA
:1021A000C091690280916802C82B80915F028823E8
:1021B00031F0C82B0E94B62481110E94BE10F80194
:1021C000C083C0910401D091050148E050E065E56D
:1021D00072E0CE010E94642E892B59F088E0FE0146
:1021E000A5E5B2E001900D928A95E1F7CE010E943B
:1021F0005324DF91CF911F910F9108950E94C81031
:10220000089508950E94011108959091D40292FFBB
:1022100011C098E0899F90011124622B60935D02A8
:102220000E947C0C80915D028695869586950E9421
:10223000021108950E947C0C089510925D0280E0C6
:102240000E940211089590915D02809589238093E8
:102250005D02282F277069F4891759F09091D402F4
:1022600092FF07C08695869586950E948C0C0E94E9
:102270001D1108959091D40292FB222720F928176E
:1022800069F080FB92F99093D4028091D3029091EF
:10229000D4020E94821182E00E942311089580914D
:1022A000D40282FB882780F991E089270E943A11A5
:1022B000089581E00E943A11089580E00E943A1149
:1022C00008956FEF7FEF90E080E00E94BC2E0895AC
:1022D00090E080E00E94882E21E0863E9E4F09F02B
:1022E00020E0822F089582E090E00E947A2E0895E7
:1022F00083E090E00E947A2E089584E090E00E94AE
:10230000882E0895BC0184E090E00E94BC2E0895C0
:10231000AB01BC018FE090E00E94B02E0895AB01AC
:10232000BC0183E190E00E94B02E089560E070E06F
:10233000CB010E948F11089560E070E0CB010E94F4
:1023400088110E9496110895A8E0B0E0EAEAF1E150
:102350000C949E2D66EE7EEF90E080E00E94BC2EF5
:1023600060E082E090E00E949E2E81E090E09093F9
:1023700013028093120261E083E090E00E949E2E9F
:1023800060E074E184E090E00E94BC2E60E086E0B2
:1023900090E00E949E2E60E087E090E00E949E2EDA
:1023A00040E050E0BA0188E090E00E94B02E60E08A
:1023B00084E290E00E949E2E60E087E190E00E941F
:1023C0009E2E60E08CE090E00E949E2E60E08DE00A
:1023D00090E00E949E2E19821A821B821C821D820E
:1023E0001E821F82188648E050E068E170E0CE014E
:1023F00001960E948E2E40E050E0BA0180E290E00B
:102400000E94B02E0E949C112896E2E00C94BA2DF6
:102410000E94A4110895682F8EE090E00E949E2EE5
:102420000895A6E0B0E0E7E1F2E10C949C2D0E9453
:10243000F4258C0180916A0290916B0280179107BC
:1024400081F019821A820E94F425682F49815A81ED
:10245000792F80E090E00E944C0810936B0200936B
:102460006A022696E4E00C94B82D0E940026609340
:102470007A0270937B0280937C0290937D0260933A
:102480007602709377028093780290937902089590
:10249000089508950E944812089508950E944D12CB
:1024A00008958DE295E10E9495160E9449120E94BE
:1024B0004A12089581E008950E945A1208950E94D8
:1024C0005A120895089508950E9462120E9463129C
:1024D00008950E946811811102C00E9408120E9492
:1024E000731180937E020E947D119093D402809399
:1024F000D3020E94AB1E0E94781190E00E94400C13
:1025000080911002909111020E94610C08950E9426
:10251000EB250E94ED150E9469120E9420080E947E
:10252000F51C0E944E120895A6E0B0E0EAE9F2E13F
:102530000C94922D0E945C1281110CC00E94111209
:102540000E94D11D0E94A8220E9433082696EEE028
:102550000C94AE2D0E9403162CE6822E22E0922EC1
:10256000640110E0F601E190F1906F01812F0E946B
:1025700034151F5F153009F44BC0E816F90691F3C6
:1025800080917E0281FD0E943D150E945F12782E8F
:1025900010E066246394812F0E9434157C01F401BD
:1025A000A190B1904F018A159B0561F100E0CC2408
:1025B000C394D12CAE24BF24C5018C219D21892B2D
:1025C000C1F07720B1F009831A830E94F4259C831F
:1025D0008B836D8221E0C7018C219D21892B09F419
:1025E00020E049815A816B817C818D81922F0E94EC
:1025F0004C080F5FCC0CDD1C0F30F1F6F401329764
:10260000F182E0821F5F153031F60E94351298CFBB
:10261000E816F90609F0B4CF91CF1F93CF93DF935B
:102620000E943C14EC01C11580E5D807F0F5C115F6
:1026300080E4D80708F09CC0C03ED10520F5CD3C11
:10264000D10508F082C0C83AD10578F4C53AD10561
:1026500008F073C0C130D10519F1209709F1C430D9
:10266000D105F0F4D0E0C0E01BC0C33CD105D0F7E9
:10267000C85AD0E0CC0FDD1FCB59DE4F0990D8816E
:10268000C02DD4640DC0C11580E2D80708F0D1C0B8
:10269000C11581E0D80708F05AC0C83ED10510F72F
:1026A000CE01DF91CF911F910895C03682E5D80702
:1026B00018F5C03482E5D80708F06BC0C03282E557
:1026C000D80708F05FC0C11582E5D80708F497C0A5
:1026D0002C2F2695269580E2289F900111248C2F7F
:1026E0008370C1E0D0E002C0CC0FDD1F8A95E2F715
:1026F000C22BD32BDD68D4CFC03A82E5D80760F473
:10270000C03882E5D80708F459C0CF71D0E0DC2F7B
:10271000CC27C46FD06AC4CFC03C82E5D80708F488
:1027200062C0C03E82E5D80708F09CCFDC2FCC27E2
:10273000CC27DF71C06FD06AB3CFC55AD0E0C55681
:10274000DE4FC881D0E0D064ABCFD065A9CF8D2F4C
:102750000E94DE14182FCE0199270E943C14C12F2D
:10276000D0E0DC2FCC27CC27DF71C82BD92B98CF1A
:10277000CE0199270E943C14CC27DF70C82BD92B9F
:10278000D06A8ECFCF71D0E0DC2FCC27C16FD06A5A
:1027900087CF2C2F26952695277080E2289F9001C1
:1027A00011248C2F8370C1E0D0E002C0CC0FDD1F5C
:1027B0008A95E2F7C22BD32BDC6872CF2C2F26959B
:1027C0002695277080E2289F900111248C2F83701A
:1027D000C1E0D0E002C0CC0FDD1F8A95E2F7C22B2A
:1027E000D32BDA685DCF8C2F8F710E94DE14C82F37
:1027F000D0E0DC2FCC27CC27DF71D06251CF8C2FDB
:102800008F710E94DE1455E0D695C7955A95E1F771
:10281000CF70D0E0DC2FCC27282F30E084FF05C01C
:1028200044E0220F331F4A95E1F7C22BD32BD06926
:1028300037CF8D2F8F710E94DE14182FCE0199276C
:102840000E943C14C12FD0E0DC2FCC27CC27DF71B5
:10285000C82BD92BD2CF462F753030F46F3020F4EF
:10286000672F0E941907089590E080E008950E9464
:102870002B140E940D13089582389105B9F1B0F41C
:102880008133910509F47DC048F48932910509F43A
:102890006DC08A32910509F47BC008958533910596
:1028A00009F45FC08933910509F10895833E9105CC
:1028B000D9F138F4803E910529F1823E910579F1F4
:1028C0000895863E9105D9F1873E910509F43EC0F1
:1028D000843E910541F52091D40221FF24C08091CE
:1028E000D30284FD19C087EE90E008952091D302B1
:1028F000237009F05AC02091D40223FF14C089E24A
:1029000090E008952091D30220FD38C03091D40288
:1029100030FF09C024FF43C090E080E0089520917B
:10292000D30222FDF7CF08952091D30222FD3AC0B1
:102930003091D40230FD39C024FFF5CFEDCF209186
:10294000D30223FFF0CF24FDE7CFCDCF2091D302D8
:1029500023FD2EC03091D40231FFEECF84EE90E003
:1029600008952091D30225FFDECFC9CF2091D30255
:1029700025FD21C02091D40223FFD5CF89E390E02B
:10298000D2CF2091D30226FFCECF8AE290E00895E5
:102990002091D30226FFC7CF81E390E0089583EE14
:1029A00090E0089582EE90E0089580EE90E0089522
:1029B00086EE90E0089585E390E008959091D3022B
:1029C00092FF10C041E0282F2471243009F040E02C
:1029D00031E0282F2871283009F030E0431711F03A
:1029E0002CE0822793FF10C041E0282F247124316E
:1029F00009F040E031E0282F2871283109F030E05B
:102A0000431711F02CE082273091D40230FF10C020
:102A100051E0282F2171213009F050E041E0282FAA
:102A20002871283009F040E0541711F029E082277E
:102A300031FF10C041E0282F2171213109F040E021
:102A400031E0282F2871283109F030E0431711F0C8
:102A500029E0822794FD877E089580E008950895F7
:102A600008950E9430150895E82FF0E0EE0FFF1F43
:102A7000E152FD4F808191810895089580EA8A9501
:102A8000F1F7089500C008950E943E150895F89446
:102A9000E82FE295EF70F0E031A1282F2F7081E050
:102AA00090E001C0880F2A95EAF7982F909593231C
:102AB00091A392A1892B82A3789408950F931F93D9
:102AC000CF93DF93CDEAD1E089918F3F11F00E943F
:102AD000471581E0C23BD807B9F7CEE9D1E00DEA4E
:102AE00011E089918F3F11F00E9447150C171D07C7
:102AF000C1F7DF91CF911F910F910895AF92BF92CF
:102B0000DF92EF92FF920F931F93CF93DF938C018D
:102B1000D62EC62FD0E0CE0183559E4F7C01FC01FE
:102B200020812F3F09F44CC0F894E22FE295EF701A
:102B3000F0E031A12F7081E090E001C0880F2A956C
:102B4000EAF7932F982B91A392A18095892382A3D2
:102B500078940E944215EEE9F1E041E050E0B12C9A
:102B6000A12C21912F3FB1F1A22FA295AF70B0E01F
:102B700090968C9190E02F7002C0959587952A953C
:102B8000E2F780FD27C0CA01A82AB92A440F551FC1
:102B900081E0ED3AF80729F7F70180818F3F11F0C6
:102BA0000E94471561E0A114B10409F460E08D2D85
:102BB0000E944415CC0FDD1FC00FD11FB982A8821F
:102BC000DF91CF911F910F91FF90EF90DF90BF9019
:102BD000AF90089590E080E0D7CF0E945E158AE024
:102BE000EFEDF2E0DF01982F1D929A95E9F7E5ED00
:102BF000F2E0DF011D928A95E9F785E00E943E161A
:102C00000E94F4060895AAE0B0E0E9E0F6E10C9431
:102C10009B2D8E010F5F1F4F8AE0F80111928A955C
:102C2000E9F7F12C6F2DC8010E947E15F394F5E0B1
:102C3000FF12F8CF4AE050E0B80185ED92E00E9423
:102C4000642E21E0009709F420E0892B41F08AE00E
:102C5000F801A5EDB2E001900D928A95E1F745E00B
:102C60006FED72E085ED92E00E943F16182F0E94F2
:102C70003115812F2A96E5E00C94B72D0895B0E028
:102C8000A0E0E5E4F6E10C94982D6C017B01042FA3
:102C9000C22F222379F081E0809381020E94F425E3
:102CA0009093800280937F0280E0CDB7DEB7E8E0AA
:102CB0000C94B42DD0918102DD23B1F380917F0279
:102CC000909180020E940C26059770F310E0000F8F
:102CD000111FA801B601C7010E94642E892B31F093
:102CE000A801B601C7010E94712ECD2F109281025A
:102CF0008C2FDBCF0E94C9270E9487120E94D62703
:102D000008950E94DB270E9494120E94F5270895DF
:102D10000E948D250E94AF270E9451120E947A16B0
:102D20000E9481160E946412FBCF9093E101809370
:102D3000E0010895EF92FF920F931F93CF93DF93DB
:102D4000EB01E82FD1110EC0442321F0F0E0EA5D41
:102D5000F44FE4916E2F7E2F8E2FCDB7DEB7E6E0D5
:102D60000C94B62D0D2F10E0282F30E0442329F0CD
:102D70002A5D344FF901249130E0F6E0CF9FC00185
:102D80001124EFEFF0E0BF010E940D2DAB018C2F5D
:102D900090E0880F991FA5E5A49FB001A59F700D35
:102DA0001124861B970B982F990F980FBF01601B5A
:102DB000710B629FD001639FB00D729FB00D112403
:102DC0008B2F9D9FB0011124672F7727EF01C61B22
:102DD000D70BBE01629FE001639FD00D729FD00DA3
:102DE00011247F01E91AF108E09EB001E19E700D07
:102DF000F09E700D1124672F7727E61BF70BE29FDB
:102E00008001E39F100DF29F100D1124E12F722F0E
:102E10004230510599F048F44115510569F04130AF
:102E2000510581F0EB2F8D2F07C04430510569F01B
:102E300080F046305105B1F76E2F8FCFE22F7B2FF8
:102E4000812FFACFE22F7D2FF7CFEB2F822F712F1B
:102E5000F3CF7B2F822FED2FEFCF41E00E949A1608
:102E6000089508950E942D170895CF93DF93762F2C
:102E7000E901682F842F0E943217798368838A833F
:102E8000DF91CF9108958091E902982F9C7F29F4DA
:102E9000837084608093E90208958C3AE8F383702C
:102EA000886AF8CFB0E0A0E0E8E5F7E10C94982D4F
:102EB00088E090E00E94822E6B017C0184E290E029
:102EC0000E947A2E282F30E040E050E060E070E071
:102ED00080E090E000E20E94C52DB22FA32FF42FD6
:102EE000E52FD62FC72F97018601BC29A12BFE29DC
:102EF0005E2F532B2B2F3A2F4F2F6D2F7C2FCDB7BB
:102F0000DEB7E8E00C94B42DB0E0A0E0EAE8F7E129
:102F10000C94942D49015A016B017C010E944317C6
:102F20008401A4016A2D7B2D88E090E00E94B02EE0
:102F300094014A2D5B2DB601C70100E20E94E02DED
:102F4000622F84E290E00E949E2ECDB7DEB7ECE0C7
:102F50000C94B02DE9EEF2E085E0808311828FEFD2
:102F6000828383831482758125E030E04FEF5FEF29
:102F700060E0868197810E94841708958091E9021C
:102F800080FF03C086958695089580E0089590910E
:102F9000ED02933018F49F5F9093ED02882391F037
:102FA0002091E9023091EA024091EB025091EC024B
:102FB0006091ED027091EE028091EF029091F0022B
:102FC0000E948417089581E00E94C7170895909188
:102FD000ED02992319F091509093ED02882391F01E
:102FE0002091E9023091EA024091EB025091EC020B
:102FF0006091ED027091EE028091EF029091F002EB
:103000000E948417089581E00E94E7170895609157
:103010000A018091E90280FF0FC070E080910901F0
:1030200023E0829FC0011124E091DD01F091DE01D7
:103030008F509D4F0995089580910B0190910C013F
:1030400023E0829FF0011124EF50FD4F891728F7EC
:103050001182108212828F5F3396F8CF9091E9022D
:1030600090FF0EC090910B0120910C0133E0939FD3
:10307000F0011124EF50FD4F921718F00E9407182D
:1030800008958183608342839F5F3396F5CFA3E0E9
:10309000B0E0EDE4F8E10C949E2D9091E90290FFF0
:1030A0000AC09E012F5F3F4F0E9435174B816981F7
:1030B0008A810E942E182396E2E00C94BA2DCF93B9
:1030C000DF93EC01EC81F0E0EF5DF54F4491E9EE28
:1030D000F2E0628181810E9447188C818F5F8C832E
:1030E000DF91CF910895CF93DF93EC01E9EEF2E009
:1030F000438162818C810E9447188C818F5F8C8311
:10310000DF91CF910895A3E0B0E0E9E8F8E10C94F5
:103110009C2D8C018091820281110AC09E012F5F3B
:103120003F4F4FEF6FEF0E9435178A8180938202E5
:10313000F8016481613069F08091820240E0662389
:1031400061F040E0623011F44091820280E060E082
:1031500004C06091820240E080E00E942E18F801D5
:10316000848190E0019663E070E00E94212D8483C9
:103170002396E4E00C94B82DA3E0B0E0E2ECF8E193
:103180000C94972D082FD62EF42EC22E9091E90282
:1031900090FF2FC0E92FE695E695AE2FB0E0AE5434
:1031A000BE4F8C918093AA029C7F943031F59E0192
:1031B0002F5F3F4F802F0E9435174B8169818A8195
:1031C0000E942E180093EA02D092EB02F092EC02D9
:1031D000CC2079F02091E9026091ED027091EE022D
:1031E000302F4D2D5F2D8091EF029091F0020E94C3
:1031F00084172396E9E00C94B32D823019F4F090F3
:10320000EC02E0CF863019F40091EA02DBCF89307E
:10321000D9F38931B9F6E9516E2F6170B62EE69572
:10322000F0E0EF5DF44F1491E12C60910D01E61692
:1032300018F00E940718C6CFE19EC001112470E06B
:103240000E940D2D802FB11014C0860F20910B010C
:10325000622F6E0D7727771F9B01220F331F260FDA
:10326000371F2F503D4F4F2D6D2D0E943517E39482
:10327000DCCF861BEBCFE9EEF2E09181282F438172
:1032800062818CE0890F0E94BC18089581E00E9441
:103290003B190895E9EEF2E09181282F4381628184
:1032A00084EF890F0E94BC18089581E00E944A199A
:1032B0000895E9EEF2E0628129E1620F08F46FEF10
:1032C000282F438181810E94BC18089581E00E94CB
:1032D00059190895E9EEF2E0628129E1621B08F4D0
:1032E00060E0282F438181810E94BC18089581E00D
:1032F0000E946A190895E9EEF2E043812CE0420F42
:1033000008F44FEF282F628181810E94BC18089534
:1033100081E00E947B190895E9EEF2E043812CE000
:10332000421B08F440E0282F628181810E94BC1872
:10333000089581E00E948C19089520E00E94BC1835
:103340000895EF92FF921F93CF93DF93EC0110E06B
:10335000EE24EA94F12C60910D01161770F00E9492
:1033600007189A818C8190FF27C08F5F8C83DF9133
:10337000CF911F91FF90EF90089520910B01422F64
:10338000410F5527551FCA019A01220F331F280FDD
:10339000391F2F503D4F70E0C7010E94212D962FFD
:1033A0008C814091EC026091EB02199F800D1124F9
:1033B0000E9435171F5FCFCF8150D8CFB0E0A0E07B
:1033C000E4EEF9E10C94962DFC0182810FEF80FF71
:1033D00001E010E046E0A42E80910D01181798F04E
:1033E0000E94071880918402013009F04FC08111BA
:1033F00002C080910D01815080938402CDB7DEB769
:10340000EAE00C94B22DC0910B01C12ED12CCC0D51
:10341000DD2DD11DCE01880F991FC80FD91FCF50A8
:10342000DD4F198218821A8234E0E32EF12CB12C80
:10343000809184028B0D87301CF16A2D0E94FF2C35
:10344000892F082E000C990BC816D90691F480918B
:10345000EC028E9DA0018F9D500D1124559547952E
:10346000559547959E016091EB028091EA020E947A
:103470003517B00EF1E0EF1AF108D1F61F5FACCFAF
:1034800087FFDFCF90910D01890FDBCF90E0019690
:1034900060910D0170E00E94212DAECF0F931F931C
:1034A000CF93DF9380910B0190910C0123E0829FD9
:1034B000F0011124EF50FD4F891740F1C0E0D3E037
:1034C00060910D01C61740F10E9407182091070175
:1034D00080918302820F8093830290910801920F62
:1034E00090930801191654F4082E000C990B409182
:1034F0000D014150550B841795071CF02195209321
:103500000701DF91CF911F910F91089511821082D1
:1035100012828F5F3396D0CF0C2F10E070E0C8017D
:103520000E94212D20910B01820F482F50E0209105
:103530008302022E000C330B02171307BCF02091FC
:103540000801022E000C330B201731077CF08D9FF1
:10355000900111242F503D4F4091EC026091EB02FD
:103560008091EA020E943517CF5FAACFFA01EE0FD1
:10357000FF1FE40FF51FEF50FD4F118210821282E2
:10358000F3CFB0E0A0E0E7ECFAE10C94942DEC016D
:103590004C81042F10E09801D8010E94652D9B01F9
:1035A000AC010E947B2D4B015C01E0E2F0E0E01BEE
:1035B000F10BA5E5B0E0AC019B010E947B2D6B01F6
:1035C0007C019F01DF010E945D2D9B01AC010E94E7
:1035D000862D9B01AC01280D391D4A1D5B1DC701BD
:1035E000B6010E94352DF22E822F90E039E23F1570
:1035F00020F143E0249F9001112435952795122F47
:10360000109500E085E5E82EEF1880910D01081770
:1036100018F10E9407189C8181E0992319F09032DB
:1036200019F48FEF8093060180910601890F8C8336
:10363000CDB7DEB7ECE00C94B02D25E530E0B90154
:10364000681B790B9B01220F331F260F371F37FF93
:10365000D4CF2F5F3F4FD1CF8E2D01FD8F2D2091E5
:103660000B01622F600F7727771F9B01220F331FFB
:10367000260F371F2F503D4F412F6091EB020E94C4
:1036800035170F5FC2CF0F931F93CF93DF93EC01DA
:1036900010E000E090910D019017110609F06CF414
:1036A0000E9407188C8190E00196817099278C8385
:1036B000DF91CF911F910F91089520910B01A801E7
:1036C000420F511D9A01220F331F240F351F2F5017
:1036D0003D4F4C816091EB028091EA0296959017E4
:1036E000110651F04CF0442349F04091EC020E9445
:1036F00035170F5F1F4FCECF4423B9F340E0F7CF0C
:10370000B0E0A0E0E6E8FBE10C94902DFC016280C3
:10371000448081E08483E1E2FAE07490E0EAFAE038
:10372000E491C091EC02C695C158D0E0CC0FDD1FEA
:10373000CD2FDD27812C75E0972EAA24AA94B12CD9
:1037400055245A94E719EE2EF12C80910D0188161C
:1037500038F00E940718CDB7DEB7E0E10C94AC2D2D
:10376000C82CD12C82E0861568F09C9CF0019D9CB1
:10377000F00D1124EB57FD4F8091EA028083809178
:10378000EB028183411023C09C9CF0019D9CF00DB5
:103790001124EB57FD4F1382128220910B01C601B9
:1037A000820F911D9C01220F331F280F391F2F50AC
:1037B0003D4F9C9CF0019D9CF00D1124EB57FD4F5B
:1037C0004281618180810E9435178394BECF9C9C89
:1037D00080019D9C100D11240B571D4FF801838112
:1037E0008823F1F081508383859DC0011124648179
:1037F00070E00E940D2DFB01FF27EF5DF54F8491D6
:10380000E82FE719E59DC0011124B7010E940D2D95
:103810008091EC02689FB0011124F8017283BDCF42
:103820000E94472EB5010E94212D8C179D070CF098
:10383000B4CFF2E0F61598F40E94472EB5010E942D
:10384000212DF80180830E94472E2091EB022695BE
:10385000622F70E00E94212D280FF80121839C9C8B
:10386000F0019D9CF00D1124EB57FD4F12828091C9
:10387000EC02893C58F088EC9C9CF0019D9CF00D7A
:103880001124EB57FD4F8483838387CF8431A0F7C6
:1038900084E1F2CFE9EEF2E020812E7F20833181B6
:1038A0004281538164817581868197810E9484174A
:1038B0001092AB020E94071808956091E902669584
:1038C000669570E04BE050E08EE091E00E94572E4C
:1038D000892B19F481E08093AB020E94F425909328
:1038E000A4028093A30208959091E90290FF34C04E
:1038F0009370811132C094609093E902662391F035
:103900002091E9023091EA024091EB025091EC02E1
:103910006091ED027091EE028091EF029091F002C1
:103920000E9484176091E9026695669570E04BE00D
:1039300050E08EE091E00E94572E892BB1F010925A
:10394000AB0281E08093A6024091EC026091EB0211
:103950008091EA020E949D1908958B3210F0986AB6
:10396000CBCF880F880F982BC7CF0E945D1CE9CF63
:10397000682F9091E9029695969581E0890F8B3298
:1039800008F081E00E94741C089581E00E94B81C38
:103990000895682F9091E902969596958FEF890F7B
:1039A00009F48AE20E94741C089581E00E94C91CF7
:1039B000089561E00E94741C0895E9EEF2E08081B0
:1039C00081608083869586950E94D91C0895809198
:1039D000E90280FF03C00E944A1C08950E94DD1C7A
:1039E000089560E00E94741C08958091A9028111DD
:1039F00037C00E9452172093E9023093EA024093A5
:103A0000EB025093EC026093ED027093EE02809310
:103A1000EF029093F0022C7FA1F40E94AA170E945B
:103A200052172093E9023093EA024093EB0250933D
:103A3000EC026093ED027093EE028093EF0290939C
:103A4000F0020E9443171092AB028091E90280FFBE
:103A500004C0869586950E94F11C81E08093A9029E
:103A600008950F931F93CF93DF938091AB02882328
:103A7000C1F18091AA02E091E902E695E695E81B82
:103A8000E093A502823091F5F0E0E35EF54FE4911A
:103A9000CE2FD0E00FE518E18091A602882361F0D7
:103AA0001092A6020E94F4259093A4028093A30290
:103AB0001092A8021092A7020E94F425E091A3029E
:103AC000F091A4028E1B9F0B8F3F9F4750F4EC0F89
:103AD000FD1FF093A402E093A30283EA92E0F801B1
:103AE0000995DF91CF911F910F910895863049F488
:103AF000F0E0E65EF54FE491CE2FD0E003E718E169
:103B0000CBCF893051F4E695F0E0E95EF54FE491D2
:103B1000CE2FD0E001EA19E1BFCF8F3051F4E69506
:103B2000F0E0EC5EF54FE491CE2FD0E00EED19E120
:103B3000B3CF853149F4F0E0EF5EF54FE491CE2F3D
:103B4000D0E00EE41AE1A8CFC8E2D0E001EC1AE11F
:103B5000883109F4A1CF833239F4EFE0FAE0C5915E
:103B6000D49103E818E198CFC4EFD1E003E41BE15E
:103B7000843209F491CFC0EDD7E001E317E185323B
:103B800009F08ACF8E2F63E00E94F32CE92FF0E03A
:103B9000E45FF54FE491CE2FD0E000E81BE17CCF4D
:103BA00008950E94311D0895FA01811101C0FB01A1
:103BB00009950895CF93DF93C82FD62F0E94BE1783
:103BC0008C1748F00E94BE178D1728F40E94C51C60
:103BD000DF91CF9108958C2F0E94D91CF9CF1F93AC
:103BE000CF93DF93EC01FB011581111110C00E94EE
:103BF0006F108272FE01E052F847E531F10508F0DE
:103C00005EC0E150F14D0C94572D0E94E71C812FAE
:103C1000DF91CF911F91089545ED5CE165EC7CE16A
:103C20000E94D41DF4CF45EC5CE165ED7CE1F8CF5A
:103C300045E559E166E479E1F3CF46E459E165E50C
:103C400079E1EECF47E759E166E679E1E9CF46E66B
:103C500059E167E779E1E4CF49E959E168E879E1B9
:103C6000DFCF48E859E169E979E1DACF43E058E18B
:103C700063EE77E1D5CF43EE57E163E078E1D0CF53
:103C800081E00E94D91CC3CF65E082E00E94DA1D6A
:103C9000BECF68E086E0FACF6EE089E0F7CF64E15E
:103CA0008FE0F4CF67E185E1F1CF88E1EACF62E20E
:103CB00089E1ECCF83E2E5CF6AE285E2E7CF11E06C
:103CC000A6CF869A41B34F7B51B35064EFB7F894B7
:103CD0009B01220F331F260F371F280F391F28176C
:103CE000390741F4EFBF8FE594E00197F1F700C089
:103CF00000000895DC016D91CD0178E051BB00001A
:103D000000C067FF41BB660F000000C000C000C0DC
:103D100041BB00C07A9591F7E2CF0E9461110895EE
:103D200080E00E943415817008950E9403162FEFE1
:103D300086E791E0215080409040E1F700C000000C
:103D40000E9403160E94901E882321F00E948D1E5F
:103D50000E943F2608950E94951E08958B3109F414
:103D600065C040F58B3071F078F4863009F447C0B7
:103D700020F4853059F180E00895873009F448C077
:103D80008830C9F781E00895803109F45DC068F496
:103D90008E3089F790917E02892F8B7F92FF84600D
:103DA00080937E0282FD4CC0EDCF863159F389317C
:103DB00049F3E1CF8A3201F160F48732B1F020F4A7
:103DC0008E31C8F28D514CC08932A9F60E949507F8
:103DD000D9CF833440F48A3308F041C0853329F0C9
:103DE000883381F2C8CF833431F681E090E00E94BD
:103DF000400C0E94F30BC6CF0E940812C3CF8091E3
:103E00007E02807F80937E0281E08093AF020895DE
:103E100090917E02892F8E7F90FF816080937E0239
:103E200080FDB0CF817F80937E02ACCF90917E02E7
:103E3000892F8D7F91FF826080937E0281FFA2CFC8
:103E400080917E028160EFCF90917E02892F877FE3
:103E500093FF886080937E0283FDF2CF93CF8953D6
:103E600021E030E0A90102C0440F551F8A95E2F716
:103E7000CA01BDCF80E008950E943A1F0895CF93F4
:103E8000C82F8091AF028130B9F0882331F08230A1
:103E9000A1F11092AF0280E00DC00E946F1082323B
:103EA000D1F78C2F0E943A1F81111BC08C2F0E94CA
:103EB000AE1E8170CF9108950E946F10823289F3F7
:103EC0008C2F0E943C1F81110AC0C43199F060F40C
:103ED000CB3029F0C03169F782E08093AF0281E0F6
:103EE000E8CF81E090E0E5CFC93221F0C833B9F3E3
:103EF00080E0DFCF1092AF02FBCFC93209F440C09F
:103F0000F0F4C431E9F1A8F481E0C73099F6809368
:103F1000200184E180931F018AE080931E018EE1DD
:103F200080931D0188E080931A0188E28093190133
:103F300004C082EE8C0F8A3070F181E0BBCFC035B7
:103F400009F450C0B8F48AE0CF34B9F7E091AC027C
:103F5000F091AD02309789F32081082E000C990B67
:103F6000820F911D8F3F910509F00CF43FC08FEF38
:103F70008083E3CFC135C1F181E0C23539F39ACFF7
:103F80008091AE028823C9F21092AE021092AD0267
:103F90001092AC02D2CFCD51C093AE02C330C9F063
:103FA00048F4C13099F08FE191E0C23051F01092A5
:103FB000AE02C3CFC53099F078F089E191E0C63008
:103FC000B1F79093AD028093AC02B7CF80E291E05D
:103FD000F8CF8EE191E0F5CF8DE191E0F2CF8AE16B
:103FE00091E0EFCF86EFB2CF8FEFB0CF97FFC0CF8A
:103FF0001082A3CFCF93DF93EB0186319C4711F55D
:104000000E946F109D81992399F08A7A91E009F4BA
:1040100090E09093B002811109C089E20E940625C8
:104020000E94FE1080E0DF91CF91089585E3F6CFE6
:104030008091B002811104C089E20E940E25F0CF68
:1040400085E3FBCF81E0EFCFCF93DF93EC01FB0162
:104050008581882309F4D2C09E013057233231056F
:1040600008F0B2C00E947D119093D4028093D302D5
:10407000FE01E150F047E232F10520F4EC5EF04D34
:104080000C94572D8091D30281608093D30293C00A
:104090008091D40288608093D4028DC08091D30235
:1040A0008260F3CF8091D3028460EFCF8091D302FE
:1040B0008860EBCF8091D4028160EDCF8091D402F3
:1040C0008260E9CF8091D3028061DFCF8091D302FB
:1040D0008062DBCF8091D3028064D7CF0E94F30B44
:1040E0008091D3028068D1CF8091D3028C60CDCFF4
:1040F0008091D4028360CFCF8091D3028E7FC5CFD1
:104100008091D402877FC7CF8091D3028D7FBDCFAE
:104110008091D3028B7FB9CF8091D302877FB5CFB7
:104120008091D4028E7FB7CF8091D4028D7FB3CFA0
:104130008091D3028F7EA9CF8091D3028F7DA5CFAE
:104140008091D3028F7BA1CF0E94F30B8091D30289
:104150008F779BCF8091D302837F97CF8091D402BA
:104160008C7F99CF8091D30282FB992790F921E02F
:10417000922790FB82F990FB83F987CF8091D4023C
:10418000982F909591708E7F892B90FB81F983CF2A
:104190009091D302892F8F7B96FF806476CF0E9407
:1041A000F30B9091D302892F97FB87F980586DCF3D
:1041B00081E00E940B128091D3029091D4020E9460
:1041C00082110E94F30B80E0DF91CF91089580E08F
:1041D000F0CF9091D302892F8F7E94FF806155CFCD
:1041E0009091D302892F8E7F90FF81604ECF909166
:1041F000D402892F877F93FF88604DCF81E0E4CF81
:10420000282F35EB2303C001112497FF04C08058E9
:104210009109892F089580589F4FFBCF8091B70255
:1042200080FF0DC060911E0170E0660F771F60383F
:10423000710570F56115710569F1862F089581FF8B
:1042400007C060911E0184E0689FB0011124EFCF88
:1042500060911E0182FD0AC08091B6028823A9F0F8
:1042600020911D0160911E01821710F088E0ECCFB3
:10427000869FC001112433E0880F991F3A95E1F71A
:10428000622F70E00E94212DD2CF68E070E0D5CF80
:104290008FE7089581E008958091B70280FF0CC0F8
:1042A00060911A0170E07595679575956795611530
:1042B000710549F1862F089581FF06C060911A01AA
:1042C00070E075956795F3CF60911A0182FD0BC080
:1042D0009091B5029923A1F06091190180911A0182
:1042E000961738F0682F70E06038710500F38FE79B
:1042F0000895899FC001112470E00E94212DF4CF00
:1043000061E070E0D7CF81E008959091BA022091EA
:10431000BB02922B2091BD02922B2091BC02922BCA
:1043200031F098E09093B60291E09093B5028D3C05
:1043300031F40E940E2181958093BB0208958E3C3A
:1043400019F40E940E21F8CF8F3C31F40E940E2107
:1043500081958093BA020895803D19F40E940E2140
:10436000F8CF893D29F40E944C218093BC02089526
:104370008A3D21F40E944C218195F7CF8B3D31F489
:104380000E944C2181958093BD0208958C3D19F4C3
:104390000E944C21F8CF9FE2980F983070F4815D15
:1043A000990B21E030E001C0220F8A95EAF7809155
:1043B000B902822B8093B90208958D3D31F480912A
:1043C000B70281608093B70208958E3D21F48091F9
:1043D000B7028260F7CF8F3DB9F78091B702846052
:1043E000F1CF4091BA028D3C59F48091BB0287FF16
:1043F0000DC01092BB0241110BC01092B60208C052
:104400008E3C81F48091BB0218169CF3442381F00A
:104410008091BC029091BD02892B09F05AC0109284
:10442000B50208958F3C49F447FFF0CF1092BA02CD
:104430008091BB028111ECCFE0CF803D19F41416BE
:10444000ACF3E4CF9091BC02893D29F41916F4F63F
:104450001092BC02DBCF8A3D19F497FFD7CFF8CF7B
:104460009091BD028B3D29F497FFD0CF1092BD02F1
:10447000CDCF8C3D19F41916CCF3C8CF9FE2980F1D
:10448000983090F4815D990B21E030E0B90102C0D1
:10449000660F771F8A95E2F7CB0180959091B9025C
:1044A00089238093B902B2CF8D3D31F48091B70258
:1044B0008E7F8093B702AACF8E3D21F48091B70200
:1044C0008D7FF7CF8F3D09F0A1CF8091B7028B7F11
:1044D000F0CF08950E94F4259C019091BA0280913A
:1044E000BB02982B21F03093B4022093B302909139
:1044F000BC028091BD02982B21F03093B202209330
:10450000B10288EB92E00E945E24089586E0E8EB19
:10451000F2E0DF011D928A95E9F71092B60210923F
:10452000B5021092B7020895FC01828181110EC07C
:10453000838181110BC08481811108C091E0858144
:10454000811101C090E0892F8170089581E0FCCF36
:10455000A6E0B0E0EEEAF2E20C949D2D86E0E8EBF6
:10456000F2E0DE01119601900D928A95E1F710922A
:10457000BA021092BB021092BC021092BD028B8153
:104580009C81892B89F08091B3029091B4020E94A2
:104590000C26AC019091B6029923C9F180911F01BC
:1045A0008417150608F440C08D819E81892B91F0F7
:1045B0008091B1029091B2020E940C26AC019091C0
:1045C000B502992309F46AC080911B01841715066E
:1045D00008F472C0BE016F5F7F4F88EB92E00E94CB
:1045E0002125811105C088EB92E00E94942281115F
:1045F0000E946A2286E0FE013196A8EBB2E00190AB
:104600000D928A95E1F72696E3E00C94B92D20915E
:1046100020018AE0289F900111242417350720F6F5
:104620009F5F9093B60202C09F3FD1F71B81112379
:1046300059F00E940E219FEF11160CF491E0899F12
:10464000802D11248093BA021C81112359F00E94FD
:104650000E219FEF11160CF491E0899F802D1124FB
:104660008093BB028091BA02882309F49DCF1091F8
:10467000BB02112309F498CF0E940021882351F036
:104680008093BA02812F0E940021882329F0809311
:10469000BB028ACF81E0F4CF81E0F9CF20911C01E9
:1046A0008AE0289F900111242417350708F092CF43
:1046B0009F5F9093B50202C09F3FD1F71D811123E8
:1046C00059F00E944C219FEF11160CF491E0899F44
:1046D000802D11248093BC021E81112359F00E9469
:1046E0004C219FEF11160CF491E0899F802D11242D
:1046F0008093BD028091BC02882309F46BCF109196
:10470000BD02112309F466CF0E940021882351F0D5
:104710008093BC02812F0E940021882329F080937E
:10472000BD0258CF81E0F4CF81E0F9CF0F931F9302
:10473000CF93DF93C42FD22FFC0185818823C9F04A
:104740004093C0020E94F4259093BF028093BE0262
:1047500080E28C0F883040F4C77081E001C0880F80
:10476000CA95EAF70E949D09DF91CF911F910F91A1
:1047700008951091C002141332C08091BE0290912E
:10478000BF020E940C26883C910548F5C0E2CD0F7F
:104790001D17B9F080E2810F883040F4177081E076
:1047A00001C0880F1A95EAF70E94A409C83048F49E
:1047B00081E09D2F977001C0880F9A95EAF70E94BB
:1047C0009D09802F0E949409C83070F6D77081E04F
:1047D00001C0880FDA95EAF70E94A409C5CF80E2EC
:1047E0008C0F883008F6C77081E001C0880FCA9529
:1047F000EAF7F2CF0F93DB0188519C478730910590
:10480000A0F5FC01EA5CF04D0C94572D06E221EE78
:1048100041EE6AE17CE7CD010E94962380E00F9192
:10482000089507E225EE45EE6BE17CE7F4CF06E262
:1048300021EE40EE68E17CE7EECF07E225EE44EEA4
:1048400069E17CE7E8CF06E221EE42EE6CE17CE72D
:10485000E2CF07E225EE46EE6DE17CE7DCCF08E231
:1048600021E045EE6EE17CE7D6CF15968C9188234A
:1048700019F01092C002D3CF81E0D1CF9093C6023D
:104880008093C5020895E091C502F091C602309769
:1048900029F00190F081E02D0995089580E00895B8
:1048A0000E9443240895E091C502F091C60230971A
:1048B00021F00280F381E02D09950895E091C50271
:1048C000F091C602309739F022E0DC012C9306808B
:1048D000F781E02D09950895A3E0B0E0E2E7F4E266
:1048E0000C949E2D2091C3023091C40228173907E1
:1048F000A1F09093C4028093C302E091C502F091AD
:10490000C602309751F023E029839B838A83008479
:10491000F185E02DCE01019609952396E2E00C94F5
:10492000BA2DA3E0B0E0E7E9F4E20C949E2D2091CB
:10493000C1023091C20228173907A1F09093C20238
:104940008093C102E091C502F091C602309751F008
:1049500024E029839B838A830084F185E02DCE01A6
:10496000019609952396E2E00C94BA2D409104013A
:10497000509105019A012E5F3F4F485F5F4F80E0E5
:104980002417350709F40895F90191919F0199239E
:10499000B9F38F5FF5CF882371F020910401309136
:1049A0000501F9013296285F3F4F9191981729F040
:1049B000E217F307D1F780E0089581E008959C01A4
:1049C000FC0132969FEF80E04191461751F09F3FE6
:1049D00019F4411101C0982F8F5F8630A9F79F3FCE
:1049E00009F40895290F311D97FD3A95F901628365
:1049F0000895FC01329608962191261303C0DF0129
:104A000011971C92E817F907B9F70895682F80915C
:104A10000401909105010E94DF240895682F809180
:104A20000401909105010E94F9240895E091040188
:104A3000F0910501329686E0DF011D928A95E9F733
:104A40000895DC01FB0111969C91119781819813C7
:104A500022C012968C911297882319F092818913A3
:104A60001AC013968C911397882319F09381891398
:104A700012C015968C911597882319F0958189138A
:104A80000AC014969C91992321F081E02481291376
:104A900003C080E001C081E08170089508950E9404
:104AA0004E250895811106C081E08093C7020E94BF
:104AB0004F25089582E0F9CF83E08093C7020E94DA
:104AC0004F2508950E945225089581E08093C702E2
:104AD0000E944F2508950E94652508950895089520
:104AE0000E946F250895089508950E946E250895E7
:104AF000CF930E9473250E9403160E947425C0E084
:104B00008C2F0E943415892B31F4CF5FC530C1F74B
:104B100080E0CF91089581E0FCCF85B7806885BFA4
:104B200085B7806885BF08951F921FB61F92112414
:104B30008F939F93AF93BF938091C802811113C04D
:104B40008091030390910403A0910503B0910603A3
:104B50004196A11DB11D8093030390930403A0937C
:104B60000503B0930603BF91AF919F918F911F9062
:104B70001FBE1F90189580910B03843031F10E9465
:104B800003081092C80288E190E020E40FB6F89480
:104B9000A895809360000FBE2093600083B7817F4B
:104BA000846083BF83B7816083BF7894889583B71F
:104BB0008E7F83BF0FB6F894A895809160008861BE
:104BC00080936000109260000FBE08950E94F30B66
:104BD0000E940808089582E084BD93E095BD9AEF95
:104BE00097BD80936E0008952FB7F89480910303CA
:104BF00090910403A0910503B09106032FBF08957F
:104C00002FB7F8946091030370910403809105031A
:104C1000909106032FBF08959C014FB7F89480919F
:104C2000030390910403A0910503B09106034FBFC5
:104C3000821B930B089578941F921FB61F92112424
:104C40008F939F93AF93BF9380910303909104033D
:104C5000A0910503B09106030196A11DB11D80939B
:104C6000030390930403A0930503B0930603BF913D
:104C7000AF919F918F911F901FBE1F90189581E05B
:104C80008093E00080E28093D8001092C9008FE109
:104C90009EE40197F1F700C0000087E090EBDC0193
:104CA0008093140390931503A0931603B0931703F6
:104CB00088E19CE00FB6F894A895809360000FBE41
:104CC00090936000FFCF88E19CE00FB6F894A89520
:104CD000809360000FBE90936000FFCF8091D1025F
:104CE000089508959B01BA0190910B039430E9F463
:104CF0008F708093E9009FEF8091E800915085FDCF
:104D000006C085ED8A95F1F700009111F5CF8091ED
:104D1000E80085FF0AC050E040E0C9010E946C280D
:104D20008091E8008E778093E800089543E050E09A
:104D3000BC0182E00E947226089546E050E0BC016A
:104D400082E00E9472260895CF93DF93EC0148E041
:104D500050E0BC0181E00E94722688E0FE01A9ECCF
:104D6000B2E001900D928A95E1F7DF91CF9108951D
:104D700080910A03811109C00E94FC290E94592ACE
:104D80008091E20084608093E200089510920A030B
:104D900008950E94652508956091070381E06111DF
:104DA00001C080E00E945C25089590910B0381E092
:104DB000943009F080E0609107030E946225089515
:104DC00042E061EC81E00E94782942E261EC82E0FD
:104DD0000E94782990910B0381E0943009F080E0E3
:104DE000609107030E945225089580910D0383303E
:104DF00009F461C030F48130D1F1823009F49EC0F1
:104E000008958A3009F48AC08B3009F46FC0893064
:104E100009F050C080910C03813209F04BC08091A1
:104E2000100390911103029708F044C08091E800AC
:104E3000877F8093E8008091E80082FF37C09091DF
:104E4000F3008091F200029731F48091F1008130FB
:104E500011F0863021F48091F1008093D10280918D
:104E6000E8008B778093E8000E94AC2923C08091F2
:104E70000C03813AF9F48091E800877F8093E80081
:104E80008091100390911103892B61F468E089EC03
:104E900092E070E00E94BB288091E8008B778093BD
:104EA000E800089560E090E080E0F3CF80910B038C
:104EB0008111C1CF089580910C03813AD9F7809177
:104EC000100390911103892BA9F78091E800877F47
:104ED0008093E8008091E80080FFFCCF80912B0157
:104EE0008093F1008091E8008E77BCCF80910C0315
:104EF000813201F78091100390911103892BD1F633
:104F00008091E800877F8093E8000E94AC2980911F
:104F10000E0380932B010E94F30B089580910C03E4
:104F2000813241F68091E800877F8093E8000E94FB
:104F3000AC2980910F038093D202089580910C03D5
:104F4000813A09F0B7CF8091E800877F8093E8002D
:104F50008091E80080FFFCCF8091D202C1CF84B75E
:104F6000877F84BF0FB6F894A89580916000886110
:104F700080936000109260000FBE80E890E00FB652
:104F8000F89480936100909361000FBE0E946B259E
:104F900008950E94FC290E94592AE2EEF0E08081E7
:104FA0008460808378940E94D82C089581E291E0F7
:104FB0000E943E24089580910B03853031F4809146
:104FC0000B03853019F00E94E62508950E94BB2549
:104FD00080910903882399F30E947825882379F327
:104FE0000E9456280E94F30BEACF08959A0140913F
:104FF0001203509113030E94FE270895492F55274D
:105000004330510519F168F44130510509F444C0A9
:105010004230510509F445C090E080E050E040E0A6
:1050200025C04132510549F142325105A9F784E4C6
:1050300090E04CE05DE061157105C1F08BE790E018
:1050400041E95CE06130710589F0E6CF9927813054
:10505000910581F0009729F00297F1F6E6E2FCE075
:1050600002C0E0E4FCE0849190E0AF01F9015183DB
:1050700040830895E2E3FCE0F6CF89E090E046E566
:105080005CE06115710591F389E090E04FE65CE02A
:105090006130710559F3C0CF82E190E04FE75CE0E9
:1050A000E5CF8BE390E044E45CE0E0CF80E189BDB4
:1050B00082E189BD09B400FEFDCF8091D8008F7DCB
:1050C0008093D8008091E00082608093E00080911E
:1050D000E00081FDFCCF0895AF92BF92CF92DF92A6
:1050E000FF920F931F93CF93DF936C01EB018A0123
:1050F0000E94CB29F82E811123C00115110539F02A
:10510000F80180819181C81BD90BC80ED91EB12C22
:10511000A12C2097A9F08091E80085FD22C0809104
:10512000E8008E778093E80001151105A1F0F801E1
:1051300080819181A80EB91EB182A08285E0F82EEF
:105140008F2DDF91CF911F910F91FF90DF90CF9026
:10515000BF90AF9008950E94CB298823D1F2F82EFA
:10516000EFCFF60181916F018093F1002197FFEF5E
:10517000AF1ABF0ACECFFC018091120390911303A6
:1051800086179707A0F06115710529F49091E80042
:105190009E779093E80090E06115710551F49111AC
:1051A00008C08091E80082FF34C080E00895BC010F
:1051B000F2CF80910B038823C1F18530C1F180913A
:1051C000E80083FD30C08091E80082FDEACF809145
:1051D000E80080FFE1CF8091F3002091F200382FAA
:1051E0006115710519F02830310558F091E028302B
:1051F000310509F090E02091E8002E772093E80037
:10520000CBCF81918093F100615071092F5F3F4FA7
:10521000E7CF80910B03882341F0853041F08091E6
:10522000E80083FFBECF81E0089582E0089583E027
:105230000895FC018091120390911303861797073C
:10524000A0F06115710529F48091E8008E778093B4
:10525000E80090E06115710551F4911108C080914A
:10526000E80082FF35C080E00895BC01F2CF809154
:105270000B038823C9F18530C9F18091E80083FDD3
:1052800031C08091E80082FDEACF8091E80080FF84
:10529000E1CF8091F3002091F200382F6115710564
:1052A00019F02830310558F091E02830310509F027
:1052B00090E08091E8008E778093E800CBCF8491D6
:1052C0008093F1003196615071092F5F3F4FE6CF17
:1052D00080910B03882341F0853041F08091E800F4
:1052E00083FFBDCF81E0089582E0089583E00895B3
:1052F000982F973028F08F708093E90081E008950F
:105300009093E900242F762F50E0981731F0709198
:10531000EC002091ED005091F00021FD02C09F5F54
:10532000E8CF3091EB003E7F3093EB003091ED0001
:105330003D7F3093ED003091EB0031603093EB0016
:105340007093EC002093ED005093F0002091EE005C
:1053500027FDE5CF80E0089580910C0387FF13C0FF
:105360008091E80082FF06C08091E8008B778093EF
:10537000E80004C080910B038111F2CF0895809161
:105380000B038823D9F38091E80080FFF8CF809148
:10539000E8008E77ECCF2091E4003091E50095E6AF
:1053A000A9012091EC00822F817020FF06C080911E
:1053B000E80080FF06C080E008952091E80022FD0B
:1053C0001AC080910B03882389F0853089F0809181
:1053D000EB0085FD0FC02091E4003091E5004217FD
:1053E0005307F9F29150E1F684E0089582E00895C0
:1053F00083E0089581E008950E946B2A0E94732A39
:10540000E0EEF0E0808181608083E8EDF0E0808173
:105410008F77808319BCA7EDB0E08C918E7F8C9341
:1054200080818F7E808310920A0308950F931F93CB
:10543000CF93DF930E946B2A0E94732AC8EDD0E0BD
:1054400088818F77888388818068888388818F7D31
:10545000888319BC10920B03109207031092090362
:105460001092080300EE10E0F80180818B7F8083AA
:1054700088818160888342E060E080E00E94782932
:10548000E1EEF0E080818E7F8083E2EEF0E08081CB
:1054900081608083808188608083F80180818E7F35
:1054A0008083888180618883DF91CF911F910F91E4
:1054B0000895E8EDF0E080818F7E8083E7EDF0E0F5
:1054C00080818160808384E082BF81E080930A03D1
:1054D0000E94162A0895E8EDF0E080818E7F808397
:1054E0001092E20008951092DA001092E1000895FF
:1054F0001F920F920FB60F9211242F933F934F9349
:105500005F936F937F938F939F93AF93BF93EF932B
:10551000FF938091E10082FF0BC08091E20082FF47
:1055200007C08091E1008B7F8093E1000E94D72C1F
:105530008091DA0080FF19C08091D80080FF15C0EB
:105540008091DA008E7F8093DA008091D90080FF0D
:1055500096C080E189BD82E189BD09B400FEFDCF1E
:1055600081E080930B030E94B8268091E10080FFC8
:1055700019C08091E20080FF15C08091E2008E7F0B
:105580008093E2008091E20080618093E20080914C
:10559000D80080628093D80019BC85E080930B030B
:1055A0000E94CC268091E10084FF2BC08091E20014
:1055B00084FF27C080E189BD82E189BD89B5982F2C
:1055C000917080FFFBCF8091D8008F7D8093D800B1
:1055D0008091E1008F7E8093E1008091E2008F7ED8
:1055E0008093E2008091E20081608093E2008091EC
:1055F0000703882309F449C084E080930B030E94C9
:10560000D5268091E10083FF29C08091E20083FFCD
:1056100025C08091E100877F8093E10082E0809344
:105620000B03109207038091E1008E7F8093E100CD
:105630008091E2008E7F8093E2008091E2008061A1
:105640008093E20042E060E080E00E94782980914F
:10565000F00088608093F0000E94C926FF91EF91CE
:10566000BF91AF919F918F917F916F915F914F917A
:105670003F912F910F900FBE0F901F90189519BC5E
:1056800010920B030E94C62670CF8091E30087FD25
:1056900093E090930B03B3CF1F920F920FB60F922C
:1056A00011242F933F934F935F936F937F938F9327
:1056B0009F93AF93BF93CF93DF93EF93FF93D091DB
:1056C000E900DF708091EC00C82FC17080FDC0E858
:1056D0001092E9008091F000877F8093F000789429
:1056E0000E94902B1092E9008091F00088608093D6
:1056F000F000CD2BCF70C093E900FF91EF91DF91C7
:10570000CF91BF91AF919F918F917F916F915F9159
:105710004F913F912F910F900FBE0F901F901895B2
:10572000AAE2B0E0E6E9FBE20C949D2D8CE093E068
:105730002091F100FC012193CF01F3E084319F0718
:10574000B9F70E94F5268091E80083FF1EC1809181
:105750000C0390910D039A3008F017C1E92FF0E087
:10576000E35CF04D0C94572D803899F0823809F0A5
:105770000CC1809110038F70873008F006C18093B0
:10578000E9008091EB0085FB882780F91092E90001
:1057900006C0809108039091090391118260909155
:1057A000E800977F9093E8008093F1001092F10059
:1057B0008091E8008E77E5C0882309F4D3C0823059
:1057C00009F0E3C080910E038111D6C080911003CF
:1057D0008F702FEF280F263008F0D7C08093E90094
:1057E0002091EB0020FFC8C0933031F48091EB0092
:1057F00080628093EB00C0C09091EB009061909329
:10580000EB0021E030E001C0220F8A95EAF72093F7
:10581000EA001092EA008091EB008860EACF8111E3
:10582000B4C010910E031F778091E3008078812B24
:105830008093E3008091E800877F8093E8000E94D6
:10584000AC298091E80080FFFCCF8091E300806864
:105850008093E30082E0111183E080930B0395C0F5
:105860008058823008F091C080910E0390910F0310
:105870008C3D23E09207A1F583E08A838AE2898345
:105880004FB7F894DE01139620E03EE051E2E32F9B
:10589000F0E050935700E49120FF03C0E295EF70D1
:1058A0003F5FEF708E2F90E0EA30C0F0C7968D9387
:1058B0009D932F5F243159F74FBF8091E800877F78
:1058C0008093E8006AE270E0CE0101960E94BB2856
:1058D0008091E8008B778093E80057C0C096E7CFAF
:1058E0006091100370911103AE014F5F5F4F0E94F2
:1058F000F627BC01892B09F448C09091E800977FF6
:105900009093E80089819A810E941929E1CF80381B
:10591000E1F58091E800877F8093E800809107039C
:105920008093F10045CF811130C090910E039230E9
:1059300060F58091E800877F8093E80090930703EB
:105940000E94AC2980910703882311F084E005C0F0
:105950008091E30087FDFACF81E080930B030E94E2
:10596000E02613C080910E03813079F481E09330FA
:1059700009F080E0809309031092E9008091E8002B
:10598000877F8093E8000E94AC298091E80083FF24
:105990000AC08091E800877F8093E8008091EB0047
:1059A00080628093EB00AA96E3E00C94B92D0895F1
:1059B000CF9380910B038823A1F0C091E900CF70B1
:1059C0009091EC00892F817090FD80E8C82B109297
:1059D000E9008091E80083FD0E94902BCF70C09376
:1059E000E900CF910895991B79E004C0991F96179B
:1059F00008F0961B881F7A95C9F78095089587FB54
:105A0000082E062687FD819567FD61950E94F32C7F
:105A10000EF4919507FC81950895AA1BBB1B51E1DB
:105A200007C0AA1FBB1FA617B70710F0A61BB70B0E
:105A3000881F991F5A95A9F780959095BC01CD01B3
:105A4000089597FB072E16F4009407D077FD09D030
:105A50000E940D2D07FC05D03EF4909581959F4F37
:105A60000895709561957F4F0895A1E21A2EAA1BA3
:105A7000BB1BFD010DC0AA1FBB1FEE1FFF1FA217FE
:105A8000B307E407F50720F0A21BB30BE40BF50BFB
:105A9000661F771F881F991F1A9469F76095709584
:105AA000809590959B01AC01BD01CF010895EE0F4B
:105AB000FF1F0590F491E02D09940E94652D33237A
:105AC00012F48A1B9B0B0C94762DA29FB001B39FFE
:105AD000C001A39F700D811D1124911DB29F700DF7
